{
  "_format": "hh-sol-artifact-1",
  "contractName": "SilverbacksNFT",
  "sourceName": "contracts/SilverbacksNFT.sol",
  "abi": [
    {
      "inputs": [
        {
          "internalType": "string",
          "name": "name",
          "type": "string"
        },
        {
          "internalType": "string",
          "name": "symbol",
          "type": "string"
        }
      ],
      "stateMutability": "nonpayable",
      "type": "constructor"
    },
    {
      "anonymous": false,
      "inputs": [
        {
          "indexed": true,
          "internalType": "address",
          "name": "owner",
          "type": "address"
        },
        {
          "indexed": true,
          "internalType": "address",
          "name": "approved",
          "type": "address"
        },
        {
          "indexed": true,
          "internalType": "uint256",
          "name": "tokenId",
          "type": "uint256"
        }
      ],
      "name": "Approval",
      "type": "event"
    },
    {
      "anonymous": false,
      "inputs": [
        {
          "indexed": true,
          "internalType": "address",
          "name": "owner",
          "type": "address"
        },
        {
          "indexed": true,
          "internalType": "address",
          "name": "operator",
          "type": "address"
        },
        {
          "indexed": false,
          "internalType": "bool",
          "name": "approved",
          "type": "bool"
        }
      ],
      "name": "ApprovalForAll",
      "type": "event"
    },
    {
      "anonymous": false,
      "inputs": [
        {
          "indexed": true,
          "internalType": "uint256",
          "name": "tokenId",
          "type": "uint256"
        },
        {
          "indexed": true,
          "internalType": "address",
          "name": "burner",
          "type": "address"
        }
      ],
      "name": "BurnedSilverback",
      "type": "event"
    },
    {
      "anonymous": false,
      "inputs": [
        {
          "indexed": true,
          "internalType": "uint256",
          "name": "tokenId",
          "type": "uint256"
        },
        {
          "indexed": true,
          "internalType": "address",
          "name": "owner",
          "type": "address"
        },
        {
          "indexed": false,
          "internalType": "uint256",
          "name": "value",
          "type": "uint256"
        }
      ],
      "name": "MintedSilverback",
      "type": "event"
    },
    {
      "anonymous": false,
      "inputs": [
        {
          "indexed": true,
          "internalType": "address",
          "name": "previousOwner",
          "type": "address"
        },
        {
          "indexed": true,
          "internalType": "address",
          "name": "newOwner",
          "type": "address"
        }
      ],
      "name": "OwnershipTransferred",
      "type": "event"
    },
    {
      "anonymous": false,
      "inputs": [
        {
          "indexed": true,
          "internalType": "address",
          "name": "from",
          "type": "address"
        },
        {
          "indexed": true,
          "internalType": "address",
          "name": "to",
          "type": "address"
        },
        {
          "indexed": true,
          "internalType": "uint256",
          "name": "tokenId",
          "type": "uint256"
        }
      ],
      "name": "Transfer",
      "type": "event"
    },
    {
      "inputs": [
        {
          "internalType": "address",
          "name": "to",
          "type": "address"
        },
        {
          "internalType": "uint256",
          "name": "tokenId",
          "type": "uint256"
        }
      ],
      "name": "approve",
      "outputs": [],
      "stateMutability": "nonpayable",
      "type": "function"
    },
    {
      "inputs": [
        {
          "internalType": "address",
          "name": "owner",
          "type": "address"
        }
      ],
      "name": "balanceOf",
      "outputs": [
        {
          "internalType": "uint256",
          "name": "",
          "type": "uint256"
        }
      ],
      "stateMutability": "view",
      "type": "function"
    },
    {
      "inputs": [
        {
          "internalType": "uint256",
          "name": "tokenId",
          "type": "uint256"
        }
      ],
      "name": "burn",
      "outputs": [],
      "stateMutability": "nonpayable",
      "type": "function"
    },
    {
      "inputs": [
        {
          "internalType": "uint256",
          "name": "",
          "type": "uint256"
        }
      ],
      "name": "faceValue",
      "outputs": [
        {
          "internalType": "uint256",
          "name": "",
          "type": "uint256"
        }
      ],
      "stateMutability": "view",
      "type": "function"
    },
    {
      "inputs": [
        {
          "internalType": "uint256",
          "name": "tokenId",
          "type": "uint256"
        }
      ],
      "name": "getApproved",
      "outputs": [
        {
          "internalType": "address",
          "name": "",
          "type": "address"
        }
      ],
      "stateMutability": "view",
      "type": "function"
    },
    {
      "inputs": [
        {
          "internalType": "address",
          "name": "owner",
          "type": "address"
        },
        {
          "internalType": "address",
          "name": "operator",
          "type": "address"
        }
      ],
      "name": "isApprovedForAll",
      "outputs": [
        {
          "internalType": "bool",
          "name": "",
          "type": "bool"
        }
      ],
      "stateMutability": "view",
      "type": "function"
    },
    {
      "inputs": [
        {
          "internalType": "address",
          "name": "to",
          "type": "address"
        },
        {
          "internalType": "uint256",
          "name": "tokenId",
          "type": "uint256"
        },
        {
          "internalType": "uint256",
          "name": "value",
          "type": "uint256"
        }
      ],
      "name": "mintNote",
      "outputs": [],
      "stateMutability": "nonpayable",
      "type": "function"
    },
    {
      "inputs": [],
      "name": "name",
      "outputs": [
        {
          "internalType": "string",
          "name": "",
          "type": "string"
        }
      ],
      "stateMutability": "view",
      "type": "function"
    },
    {
      "inputs": [],
      "name": "owner",
      "outputs": [
        {
          "internalType": "address",
          "name": "",
          "type": "address"
        }
      ],
      "stateMutability": "view",
      "type": "function"
    },
    {
      "inputs": [
        {
          "internalType": "uint256",
          "name": "tokenId",
          "type": "uint256"
        }
      ],
      "name": "ownerOf",
      "outputs": [
        {
          "internalType": "address",
          "name": "",
          "type": "address"
        }
      ],
      "stateMutability": "view",
      "type": "function"
    },
    {
      "inputs": [],
      "name": "renounceOwnership",
      "outputs": [],
      "stateMutability": "nonpayable",
      "type": "function"
    },
    {
      "inputs": [
        {
          "internalType": "address",
          "name": "from",
          "type": "address"
        },
        {
          "internalType": "address",
          "name": "to",
          "type": "address"
        },
        {
          "internalType": "uint256",
          "name": "tokenId",
          "type": "uint256"
        }
      ],
      "name": "safeTransferFrom",
      "outputs": [],
      "stateMutability": "nonpayable",
      "type": "function"
    },
    {
      "inputs": [
        {
          "internalType": "address",
          "name": "from",
          "type": "address"
        },
        {
          "internalType": "address",
          "name": "to",
          "type": "address"
        },
        {
          "internalType": "uint256",
          "name": "tokenId",
          "type": "uint256"
        },
        {
          "internalType": "bytes",
          "name": "data",
          "type": "bytes"
        }
      ],
      "name": "safeTransferFrom",
      "outputs": [],
      "stateMutability": "nonpayable",
      "type": "function"
    },
    {
      "inputs": [
        {
          "internalType": "address",
          "name": "operator",
          "type": "address"
        },
        {
          "internalType": "bool",
          "name": "approved",
          "type": "bool"
        }
      ],
      "name": "setApprovalForAll",
      "outputs": [],
      "stateMutability": "nonpayable",
      "type": "function"
    },
    {
      "inputs": [
        {
          "internalType": "string",
          "name": "baseURI",
          "type": "string"
        }
      ],
      "name": "setBaseURI",
      "outputs": [],
      "stateMutability": "nonpayable",
      "type": "function"
    },
    {
      "inputs": [
        {
          "internalType": "address",
          "name": "_vaultContract",
          "type": "address"
        }
      ],
      "name": "setVaultContract",
      "outputs": [],
      "stateMutability": "nonpayable",
      "type": "function"
    },
    {
      "inputs": [
        {
          "internalType": "bytes4",
          "name": "interfaceId",
          "type": "bytes4"
        }
      ],
      "name": "supportsInterface",
      "outputs": [
        {
          "internalType": "bool",
          "name": "",
          "type": "bool"
        }
      ],
      "stateMutability": "view",
      "type": "function"
    },
    {
      "inputs": [],
      "name": "symbol",
      "outputs": [
        {
          "internalType": "string",
          "name": "",
          "type": "string"
        }
      ],
      "stateMutability": "view",
      "type": "function"
    },
    {
      "inputs": [
        {
          "internalType": "uint256",
          "name": "tokenId",
          "type": "uint256"
        }
      ],
      "name": "tokenURI",
      "outputs": [
        {
          "internalType": "string",
          "name": "",
          "type": "string"
        }
      ],
      "stateMutability": "view",
      "type": "function"
    },
    {
      "inputs": [
        {
          "internalType": "address",
          "name": "from",
          "type": "address"
        },
        {
          "internalType": "address",
          "name": "to",
          "type": "address"
        },
        {
          "internalType": "uint256",
          "name": "tokenId",
          "type": "uint256"
        }
      ],
      "name": "transferFrom",
      "outputs": [],
      "stateMutability": "nonpayable",
      "type": "function"
    },
    {
      "inputs": [
        {
          "internalType": "address",
          "name": "newOwner",
          "type": "address"
        }
      ],
      "name": "transferOwnership",
      "outputs": [],
      "stateMutability": "nonpayable",
      "type": "function"
    },
    {
      "inputs": [],
      "name": "vaultContract",
      "outputs": [
        {
          "internalType": "address",
          "name": "",
          "type": "address"
        }
      ],
      "stateMutability": "view",
      "type": "function"
    }
  ],
  "bytecode": "0x60806040523480156200001157600080fd5b506040516200205138038062002051833981016040819052620000349162000193565b818160006200004483826200028c565b5060016200005382826200028c565b505050620000706200006a6200007860201b60201c565b6200007c565b505062000358565b3390565b600680546001600160a01b038381166001600160a01b0319831681179093556040519116919082907f8be0079c531659141344cd1fd0a4f28419497f9722a3daafe3b4186f6b6457e090600090a35050565b634e487b7160e01b600052604160045260246000fd5b600082601f830112620000f657600080fd5b81516001600160401b0380821115620001135762000113620000ce565b604051601f8301601f19908116603f011681019082821181831017156200013e576200013e620000ce565b816040528381526020925086838588010111156200015b57600080fd5b600091505b838210156200017f578582018301518183018401529082019062000160565b600093810190920192909252949350505050565b60008060408385031215620001a757600080fd5b82516001600160401b0380821115620001bf57600080fd5b620001cd86838701620000e4565b93506020850151915080821115620001e457600080fd5b50620001f385828601620000e4565b9150509250929050565b600181811c908216806200021257607f821691505b6020821081036200023357634e487b7160e01b600052602260045260246000fd5b50919050565b601f8211156200028757600081815260208120601f850160051c81016020861015620002625750805b601f850160051c820191505b8181101562000283578281556001016200026e565b5050505b505050565b81516001600160401b03811115620002a857620002a8620000ce565b620002c081620002b98454620001fd565b8462000239565b602080601f831160018114620002f85760008415620002df5750858301515b600019600386901b1c1916600185901b17855562000283565b600085815260208120601f198616915b82811015620003295788860151825594840194600190910190840162000308565b5085821015620003485787850151600019600388901b60f8161c191681555b5050505050600190811b01905550565b611ce980620003686000396000f3fe608060405234801561001057600080fd5b50600436106101425760003560e01c806370a08231116100b8578063a22cb4651161007c578063a22cb4651461029e578063b88d4fde146102b1578063c87b56dd146102c4578063e985e9c5146102d7578063f2fde38b14610313578063fe8dbd8e1461032657600080fd5b806370a0823114610249578063715018a61461026a5780638da5cb5b1461027257806395d89b411461028357806396f4ada61461028b57600080fd5b806323b872dd1161010a57806323b872dd146101d757806342842e0e146101ea57806342966c68146101fd57806346b2331b1461021057806355f804b3146102235780636352211e1461023657600080fd5b806301ffc9a71461014757806306fdde031461016f578063081812fc14610184578063095ea7b3146101af5780632274346b146101c4575b600080fd5b61015a610155366004611555565b610346565b60405190151581526020015b60405180910390f35b610177610398565b60405161016691906115c2565b6101976101923660046115d5565b61042a565b6040516001600160a01b039091168152602001610166565b6101c26101bd36600461160a565b610451565b005b600954610197906001600160a01b031681565b6101c26101e5366004611634565b61056b565b6101c26101f8366004611634565b61059c565b6101c261020b3660046115d5565b6105b7565b6101c261021e366004611670565b6106cd565b6101c261023136600461172f565b610809565b6101976102443660046115d5565b610821565b61025c610257366004611778565b610881565b604051908152602001610166565b6101c2610907565b6006546001600160a01b0316610197565b61017761091b565b6101c2610299366004611778565b61092a565b6101c26102ac366004611793565b610954565b6101c26102bf3660046117cf565b61095f565b6101776102d23660046115d5565b610997565b61015a6102e536600461184b565b6001600160a01b03918216600090815260056020908152604080832093909416825291909152205460ff1690565b6101c2610321366004611778565b6109fe565b61025c6103343660046115d5565b60076020526000908152604090205481565b60006001600160e01b031982166380ac58cd60e01b148061037757506001600160e01b03198216635b5e139f60e01b145b8061039257506301ffc9a760e01b6001600160e01b03198316145b92915050565b6060600080546103a79061187e565b80601f01602080910402602001604051908101604052809291908181526020018280546103d39061187e565b80156104205780601f106103f557610100808354040283529160200191610420565b820191906000526020600020905b81548152906001019060200180831161040357829003601f168201915b5050505050905090565b600061043582610a77565b506000908152600460205260409020546001600160a01b031690565b600061045c82610821565b9050806001600160a01b0316836001600160a01b0316036104ce5760405162461bcd60e51b815260206004820152602160248201527f4552433732313a20617070726f76616c20746f2063757272656e74206f776e656044820152603960f91b60648201526084015b60405180910390fd5b336001600160a01b03821614806104ea57506104ea81336102e5565b61055c5760405162461bcd60e51b815260206004820152603d60248201527f4552433732313a20617070726f76652063616c6c6572206973206e6f7420746f60448201527f6b656e206f776e6572206f7220617070726f76656420666f7220616c6c00000060648201526084016104c5565b6105668383610ad6565b505050565b6105753382610b44565b6105915760405162461bcd60e51b81526004016104c5906118b8565b610566838383610bc3565b6105668383836040518060200160405280600081525061095f565b6105da6040518060600160405280602e8152602001611c86602e91393383610d27565b6105e43382610b44565b806105f957506009546001600160a01b031633145b61063e5760405162461bcd60e51b81526020600482015260166024820152752737ba1030baba3437b934bd32b2103a3790313ab93760511b60448201526064016104c5565b61064781610d6e565b600760008281526020019081526020016000206000905561069d6040518060400160405280601881526020017f4e4654206275726e65643a20746f6b656e4964203d202573000000000000000081525082610e03565b604051339082907f33add8699c7a0f22f198344aa2f8113d8ebae04fdb240d243f54795f3d3d472390600090a350565b6106ef604051806060016040528060258152602001611c0b6025913933610e48565b6107136040518060600160405280602d8152602001611c59602d9139848484610e8d565b6006546001600160a01b031633148061073657506009546001600160a01b031633145b61077b5760405162461bcd60e51b8152602060048201526016602482015275139bdd08185d5d1a1bdc9a5e9959081d1bc81b5a5b9d60521b60448201526064016104c5565b6107858383610ed6565b8060076000848152602001908152602001600020819055506107c0604051806060016040528060298152602001611c30602991398383610ef0565b826001600160a01b0316827f47a59fb4515a2e0672df07cfecf546ef354d9a6d97efac10ae8e09aabbf25cb8836040516107fc91815260200190565b60405180910390a3505050565b610811610f37565b600861081d8282611953565b5050565b6000818152600260205260408120546001600160a01b0316806103925760405162461bcd60e51b8152602060048201526018602482015277115490cdcc8c4e881a5b9d985b1a59081d1bdad95b88125160421b60448201526064016104c5565b60006001600160a01b0382166108eb5760405162461bcd60e51b815260206004820152602960248201527f4552433732313a2061646472657373207a65726f206973206e6f7420612076616044820152683634b21037bbb732b960b91b60648201526084016104c5565b506001600160a01b031660009081526003602052604090205490565b61090f610f37565b6109196000610f91565b565b6060600180546103a79061187e565b610932610f37565b600980546001600160a01b0319166001600160a01b0392909216919091179055565b61081d338383610fe3565b6109693383610b44565b6109855760405162461bcd60e51b81526004016104c5906118b8565b610991848484846110a9565b50505050565b60606109a282610a77565b60006109ac6110dc565b905060008151116109cc57604051806020016040528060008152506109f7565b806109d6846110eb565b6040516020016109e7929190611a13565b6040516020818303038152906040525b9392505050565b610a06610f37565b6001600160a01b038116610a6b5760405162461bcd60e51b815260206004820152602660248201527f4f776e61626c653a206e6577206f776e657220697320746865207a65726f206160448201526564647265737360d01b60648201526084016104c5565b610a7481610f91565b50565b6000818152600260205260409020546001600160a01b0316610a745760405162461bcd60e51b8152602060048201526018602482015277115490cdcc8c4e881a5b9d985b1a59081d1bdad95b88125160421b60448201526064016104c5565b600081815260046020526040902080546001600160a01b0319166001600160a01b0384169081179091558190610b0b82610821565b6001600160a01b03167f8c5be1e5ebec7d5bd14f71427d1e84f3dd0314c0f7b2291e5b200ac8c7c3b92560405160405180910390a45050565b600080610b5083610821565b9050806001600160a01b0316846001600160a01b03161480610b9757506001600160a01b0380821660009081526005602090815260408083209388168352929052205460ff165b80610bbb5750836001600160a01b0316610bb08461042a565b6001600160a01b0316145b949350505050565b826001600160a01b0316610bd682610821565b6001600160a01b031614610bfc5760405162461bcd60e51b81526004016104c590611a42565b6001600160a01b038216610c5e5760405162461bcd60e51b8152602060048201526024808201527f4552433732313a207472616e7366657220746f20746865207a65726f206164646044820152637265737360e01b60648201526084016104c5565b826001600160a01b0316610c7182610821565b6001600160a01b031614610c975760405162461bcd60e51b81526004016104c590611a42565b600081815260046020908152604080832080546001600160a01b03199081169091556001600160a01b0387811680865260038552838620805460001901905590871680865283862080546001019055868652600290945282852080549092168417909155905184937fddf252ad1be2c89b69c2b068fc378daa952ba7f163c4a11628f55a4df523b3ef91a4505050565b610566838383604051602401610d3f93929190611a87565b60408051601f198184030181529190526020810180516001600160e01b0316630d26b92560e01b17905261117e565b6000610d7982610821565b9050610d8482610821565b600083815260046020908152604080832080546001600160a01b03199081169091556001600160a01b0385168085526003845282852080546000190190558785526002909352818420805490911690555192935084927fddf252ad1be2c89b69c2b068fc378daa952ba7f163c4a11628f55a4df523b3ef908390a45050565b61081d8282604051602401610e19929190611ab5565b60408051601f198184030181529190526020810180516001600160e01b0316632d839cb360e21b17905261117e565b61081d8282604051602401610e5e929190611ad7565b60408051601f198184030181529190526020810180516001600160e01b031663319af33360e01b17905261117e565b61099184848484604051602401610ea79493929190611b01565b60408051601f198184030181529190526020810180516001600160e01b0316637c7a8d8f60e11b17905261117e565b61081d828260405180602001604052806000815250611187565b610566838383604051602401610f0893929190611b39565b60408051601f198184030181529190526020810180516001600160e01b031663ca47c4eb60e01b17905261117e565b6006546001600160a01b031633146109195760405162461bcd60e51b815260206004820181905260248201527f4f776e61626c653a2063616c6c6572206973206e6f7420746865206f776e657260448201526064016104c5565b600680546001600160a01b038381166001600160a01b0319831681179093556040519116919082907f8be0079c531659141344cd1fd0a4f28419497f9722a3daafe3b4186f6b6457e090600090a35050565b816001600160a01b0316836001600160a01b0316036110445760405162461bcd60e51b815260206004820152601960248201527f4552433732313a20617070726f766520746f2063616c6c65720000000000000060448201526064016104c5565b6001600160a01b03838116600081815260056020908152604080832094871680845294825291829020805460ff191686151590811790915591519182527f17307eab39ab6107e8899845ad3d59bd9653f200f220920489ca2b5937696c3191016107fc565b6110b4848484610bc3565b6110c0848484846111ba565b6109915760405162461bcd60e51b81526004016104c590611b5e565b6060600880546103a79061187e565b606060006110f8836112bb565b600101905060008167ffffffffffffffff811115611118576111186116a3565b6040519080825280601f01601f191660200182016040528015611142576020820181803683370190505b5090508181016020015b600019016f181899199a1a9b1b9c1cb0b131b232b360811b600a86061a8153600a850494508461114c57509392505050565b610a7481611393565b61119183836113b4565b61119e60008484846111ba565b6105665760405162461bcd60e51b81526004016104c590611b5e565b60006001600160a01b0384163b156112b057604051630a85bd0160e11b81526001600160a01b0385169063150b7a02906111fe903390899088908890600401611bb0565b6020604051808303816000875af1925050508015611239575060408051601f3d908101601f1916820190925261123691810190611bed565b60015b611296573d808015611267576040519150601f19603f3d011682016040523d82523d6000602084013e61126c565b606091505b50805160000361128e5760405162461bcd60e51b81526004016104c590611b5e565b805181602001fd5b6001600160e01b031916630a85bd0160e11b149050610bbb565b506001949350505050565b60008072184f03e93ff9f4daa797ed6e38ed64bf6a1f0160401b83106112fa5772184f03e93ff9f4daa797ed6e38ed64bf6a1f0160401b830492506040015b6d04ee2d6d415b85acef81000000008310611326576d04ee2d6d415b85acef8100000000830492506020015b662386f26fc10000831061134457662386f26fc10000830492506010015b6305f5e100831061135c576305f5e100830492506008015b612710831061137057612710830492506004015b60648310611382576064830492506002015b600a83106103925760010192915050565b60006a636f6e736f6c652e6c6f679050600080835160208501845afa505050565b6001600160a01b03821661140a5760405162461bcd60e51b815260206004820181905260248201527f4552433732313a206d696e7420746f20746865207a65726f206164647265737360448201526064016104c5565b6000818152600260205260409020546001600160a01b03161561146f5760405162461bcd60e51b815260206004820152601c60248201527f4552433732313a20746f6b656e20616c7265616479206d696e7465640000000060448201526064016104c5565b6000818152600260205260409020546001600160a01b0316156114d45760405162461bcd60e51b815260206004820152601c60248201527f4552433732313a20746f6b656e20616c7265616479206d696e7465640000000060448201526064016104c5565b6001600160a01b038216600081815260036020908152604080832080546001019055848352600290915280822080546001600160a01b0319168417905551839291907fddf252ad1be2c89b69c2b068fc378daa952ba7f163c4a11628f55a4df523b3ef908290a45050565b6001600160e01b031981168114610a7457600080fd5b60006020828403121561156757600080fd5b81356109f78161153f565b60005b8381101561158d578181015183820152602001611575565b50506000910152565b600081518084526115ae816020860160208601611572565b601f01601f19169290920160200192915050565b6020815260006109f76020830184611596565b6000602082840312156115e757600080fd5b5035919050565b80356001600160a01b038116811461160557600080fd5b919050565b6000806040838503121561161d57600080fd5b611626836115ee565b946020939093013593505050565b60008060006060848603121561164957600080fd5b611652846115ee565b9250611660602085016115ee565b9150604084013590509250925092565b60008060006060848603121561168557600080fd5b61168e846115ee565b95602085013595506040909401359392505050565b634e487b7160e01b600052604160045260246000fd5b600067ffffffffffffffff808411156116d4576116d46116a3565b604051601f8501601f19908116603f011681019082821181831017156116fc576116fc6116a3565b8160405280935085815286868601111561171557600080fd5b858560208301376000602087830101525050509392505050565b60006020828403121561174157600080fd5b813567ffffffffffffffff81111561175857600080fd5b8201601f8101841361176957600080fd5b610bbb848235602084016116b9565b60006020828403121561178a57600080fd5b6109f7826115ee565b600080604083850312156117a657600080fd5b6117af836115ee565b9150602083013580151581146117c457600080fd5b809150509250929050565b600080600080608085870312156117e557600080fd5b6117ee856115ee565b93506117fc602086016115ee565b925060408501359150606085013567ffffffffffffffff81111561181f57600080fd5b8501601f8101871361183057600080fd5b61183f878235602084016116b9565b91505092959194509250565b6000806040838503121561185e57600080fd5b611867836115ee565b9150611875602084016115ee565b90509250929050565b600181811c9082168061189257607f821691505b6020821081036118b257634e487b7160e01b600052602260045260246000fd5b50919050565b6020808252602d908201527f4552433732313a2063616c6c6572206973206e6f7420746f6b656e206f776e6560408201526c1c881bdc88185c1c1c9bdd9959609a1b606082015260800190565b601f82111561056657600081815260208120601f850160051c8101602086101561192c5750805b601f850160051c820191505b8181101561194b57828155600101611938565b505050505050565b815167ffffffffffffffff81111561196d5761196d6116a3565b6119818161197b845461187e565b84611905565b602080601f8311600181146119b6576000841561199e5750858301515b600019600386901b1c1916600185901b17855561194b565b600085815260208120601f198616915b828110156119e5578886015182559484019460019091019084016119c6565b5085821015611a035787850151600019600388901b60f8161c191681555b5050505050600190811b01905550565b60008351611a25818460208801611572565b835190830190611a39818360208801611572565b01949350505050565b60208082526025908201527f4552433732313a207472616e736665722066726f6d20696e636f72726563742060408201526437bbb732b960d91b606082015260800190565b606081526000611a9a6060830186611596565b6001600160a01b039490941660208301525060400152919050565b604081526000611ac86040830185611596565b90508260208301529392505050565b604081526000611aea6040830185611596565b905060018060a01b03831660208301529392505050565b608081526000611b146080830187611596565b6001600160a01b03959095166020830152506040810192909252606090910152919050565b606081526000611b4c6060830186611596565b60208301949094525060400152919050565b60208082526032908201527f4552433732313a207472616e7366657220746f206e6f6e20455243373231526560408201527131b2b4bb32b91034b6b83632b6b2b73a32b960711b606082015260800190565b6001600160a01b0385811682528416602082015260408101839052608060608201819052600090611be390830184611596565b9695505050505050565b600060208284031215611bff57600080fd5b81516109f78161153f56fe53696c7665726261636b734e46542e6d696e744e6f74652063616c6c65642062793a2025734e4654206d696e7465643a20746f6b656e4964203d2025732c20666163652076616c7565203d202573506172616d65746572733a20746f203d2025732c20746f6b656e4964203d2025732c2076616c7565203d20257353696c7665726261636b734e46542e6275726e2063616c6c65642062793a2025732c20746f6b656e49643a202573a26469706673582212204a52c8850d63d98f9dd8f2781dea992410c4dbbb5a74a128a826c550d0cd2a1264736f6c63430008110033",
  "linkReferences": {},
  "deployedLinkReferences": {}
}