{
  "_format": "hh-sol-artifact-1",
  "contractName": "MultiTokenVault",
  "sourceName": "contracts/MultiTokenVault.sol",
  "abi": [
    {
      "inputs": [
        {
          "internalType": "address",
          "name": "_wbtc",
          "type": "address"
        },
        {
          "internalType": "address",
          "name": "_weth",
          "type": "address"
        },
        {
          "internalType": "address",
          "name": "_wltc",
          "type": "address"
        },
        {
          "internalType": "address",
          "name": "_multiNFT",
          "type": "address"
        }
      ],
      "stateMutability": "nonpayable",
      "type": "constructor"
    },
    {
      "anonymous": false,
      "inputs": [
        {
          "indexed": true,
          "internalType": "uint256",
          "name": "tokenId",
          "type": "uint256"
        },
        {
          "indexed": true,
          "internalType": "address",
          "name": "newOwner",
          "type": "address"
        }
      ],
      "name": "ClaimedNFT",
      "type": "event"
    },
    {
      "anonymous": false,
      "inputs": [
        {
          "indexed": true,
          "internalType": "address",
          "name": "depositor",
          "type": "address"
        },
        {
          "indexed": false,
          "internalType": "uint256",
          "name": "tokenId",
          "type": "uint256"
        }
      ],
      "name": "Deposited",
      "type": "event"
    },
    {
      "anonymous": false,
      "inputs": [
        {
          "indexed": true,
          "internalType": "address",
          "name": "previousOwner",
          "type": "address"
        },
        {
          "indexed": true,
          "internalType": "address",
          "name": "newOwner",
          "type": "address"
        }
      ],
      "name": "OwnershipTransferred",
      "type": "event"
    },
    {
      "anonymous": false,
      "inputs": [
        {
          "indexed": true,
          "internalType": "address",
          "name": "redeemer",
          "type": "address"
        },
        {
          "indexed": false,
          "internalType": "uint256",
          "name": "tokenId",
          "type": "uint256"
        }
      ],
      "name": "Redeemed",
      "type": "event"
    },
    {
      "inputs": [],
      "name": "REQUIRED_WBTC",
      "outputs": [
        {
          "internalType": "uint256",
          "name": "",
          "type": "uint256"
        }
      ],
      "stateMutability": "view",
      "type": "function"
    },
    {
      "inputs": [],
      "name": "REQUIRED_WETH",
      "outputs": [
        {
          "internalType": "uint256",
          "name": "",
          "type": "uint256"
        }
      ],
      "stateMutability": "view",
      "type": "function"
    },
    {
      "inputs": [],
      "name": "REQUIRED_WLTC",
      "outputs": [
        {
          "internalType": "uint256",
          "name": "",
          "type": "uint256"
        }
      ],
      "stateMutability": "view",
      "type": "function"
    },
    {
      "inputs": [
        {
          "internalType": "uint256",
          "name": "tokenId",
          "type": "uint256"
        },
        {
          "internalType": "bytes",
          "name": "signature",
          "type": "bytes"
        }
      ],
      "name": "claimNFT",
      "outputs": [],
      "stateMutability": "nonpayable",
      "type": "function"
    },
    {
      "inputs": [
        {
          "internalType": "uint256",
          "name": "depositAmount",
          "type": "uint256"
        },
        {
          "internalType": "string",
          "name": "metadataURI",
          "type": "string"
        }
      ],
      "name": "deposit",
      "outputs": [],
      "stateMutability": "nonpayable",
      "type": "function"
    },
    {
      "inputs": [
        {
          "internalType": "address",
          "name": "recipient",
          "type": "address"
        },
        {
          "internalType": "uint256",
          "name": "depositAmount",
          "type": "uint256"
        },
        {
          "internalType": "string",
          "name": "metadataURI",
          "type": "string"
        }
      ],
      "name": "depositTo",
      "outputs": [],
      "stateMutability": "nonpayable",
      "type": "function"
    },
    {
      "inputs": [],
      "name": "multiNFT",
      "outputs": [
        {
          "internalType": "contract MultiTokenNFT",
          "name": "",
          "type": "address"
        }
      ],
      "stateMutability": "view",
      "type": "function"
    },
    {
      "inputs": [],
      "name": "nextTokenId",
      "outputs": [
        {
          "internalType": "uint256",
          "name": "",
          "type": "uint256"
        }
      ],
      "stateMutability": "view",
      "type": "function"
    },
    {
      "inputs": [],
      "name": "owner",
      "outputs": [
        {
          "internalType": "address",
          "name": "",
          "type": "address"
        }
      ],
      "stateMutability": "view",
      "type": "function"
    },
    {
      "inputs": [
        {
          "internalType": "uint256",
          "name": "tokenId",
          "type": "uint256"
        }
      ],
      "name": "redeem",
      "outputs": [],
      "stateMutability": "nonpayable",
      "type": "function"
    },
    {
      "inputs": [
        {
          "internalType": "uint256",
          "name": "tokenId",
          "type": "uint256"
        },
        {
          "internalType": "bytes",
          "name": "signature",
          "type": "bytes"
        }
      ],
      "name": "redeemTo",
      "outputs": [],
      "stateMutability": "nonpayable",
      "type": "function"
    },
    {
      "inputs": [
        {
          "internalType": "uint256",
          "name": "tokenId",
          "type": "uint256"
        },
        {
          "internalType": "bytes",
          "name": "signature",
          "type": "bytes"
        }
      ],
      "name": "redeemWithAuth",
      "outputs": [],
      "stateMutability": "nonpayable",
      "type": "function"
    },
    {
      "inputs": [],
      "name": "renounceOwnership",
      "outputs": [],
      "stateMutability": "nonpayable",
      "type": "function"
    },
    {
      "inputs": [
        {
          "internalType": "address",
          "name": "newOwner",
          "type": "address"
        }
      ],
      "name": "transferOwnership",
      "outputs": [],
      "stateMutability": "nonpayable",
      "type": "function"
    },
    {
      "inputs": [],
      "name": "wbtc",
      "outputs": [
        {
          "internalType": "contract IERC20",
          "name": "",
          "type": "address"
        }
      ],
      "stateMutability": "view",
      "type": "function"
    },
    {
      "inputs": [],
      "name": "weth",
      "outputs": [
        {
          "internalType": "contract IERC20",
          "name": "",
          "type": "address"
        }
      ],
      "stateMutability": "view",
      "type": "function"
    },
    {
      "inputs": [],
      "name": "wltc",
      "outputs": [
        {
          "internalType": "contract IERC20",
          "name": "",
          "type": "address"
        }
      ],
      "stateMutability": "view",
      "type": "function"
    }
  ],
  "bytecode": "0x60806040523480156200001157600080fd5b5060405162001cde38038062001cde833981016040819052620000349162000105565b6200003f3362000098565b600180546001600160a01b039586166001600160a01b0319918216179091556002805494861694821694909417909355600380549285169284169290921790915560048054919093169116179055600060055562000162565b600080546001600160a01b038381166001600160a01b0319831681178455604051919092169283917f8be0079c531659141344cd1fd0a4f28419497f9722a3daafe3b4186f6b6457e09190a35050565b80516001600160a01b03811681146200010057600080fd5b919050565b600080600080608085870312156200011c57600080fd5b6200012785620000e8565b93506200013760208601620000e8565b92506200014760408601620000e8565b91506200015760608601620000e8565b905092959194509250565b611b6c80620001726000396000f3fe608060405234801561001057600080fd5b506004361061010b5760003560e01c80638a2089d3116100a2578063caf50f3e11610071578063caf50f3e14610201578063db006a7514610210578063f1215d2514610223578063f2fde38b14610236578063fe0498611461024957600080fd5b80638a2089d3146101b75780638da5cb5b146101ca578063a46d5c9d146101db578063acad8b07146101ee57600080fd5b80635e25cbb3116100de5780635e25cbb31461017b5780636dd6a13c14610197578063715018a6146101a657806375794a3c146101ae57600080fd5b80631a267c42146101105780633cdc5389146101255780633fc8cef3146101555780635c6c558714610168575b600080fd5b61012361011e366004611764565b61025c565b005b600154610138906001600160a01b031681565b6040516001600160a01b0390911681526020015b60405180910390f35b600254610138906001600160a01b031681565b600454610138906001600160a01b031681565b61018966b1a2bc2ec5000081565b60405190815260200161014c565b6101896706f05b59d3b2000081565b61012361042e565b61018960055481565b6101236101c5366004611764565b610442565b6000546001600160a01b0316610138565b600354610138906001600160a01b031681565b6101236101fc366004611764565b6107d3565b6101896729a2241af62c000081565b61012361021e3660046117e0565b610b66565b61012361023136600461189c565b610e76565b6101236102443660046118f8565b6110ff565b61012361025736600461191c565b611178565b600480546040516331a9108f60e11b81529182018590526000916001600160a01b0390911690636352211e90602401602060405180830381865afa1580156102a8573d6000803e3d6000fd5b505050506040513d601f19601f820116820180604052508101906102cc9190611975565b6040516521b630b4b69d60d11b602082015260268101869052909150600090604601604051602081830303815290604052805190602001209050600061031182611410565b9050600061035786868080601f01602080910402602001604051908101604052809392919081815260200183838082843760009201919091525086939250506114439050565b9050836001600160a01b0316816001600160a01b0316146103935760405162461bcd60e51b815260040161038a90611992565b60405180910390fd5b600480546040516347f4abdb60e01b81526001600160a01b03909116916347f4abdb916103c691889133918d91016119bd565b600060405180830381600087803b1580156103e057600080fd5b505af11580156103f4573d6000803e3d6000fd5b50506040513392508991507f6c31918c2dabe0275b23bef69f1a9e93053553a1e9fc048dde2389137628a8dd90600090a350505050505050565b610436611467565b61044060006114c1565b565b600480546040516331a9108f60e11b81529182018590526000916001600160a01b0390911690636352211e90602401602060405180830381865afa15801561048e573d6000803e3d6000fd5b505050506040513d601f19601f820116820180604052508101906104b29190611975565b604051662932b232b2b69d60c91b60208201526027810186905290915060009060470160405160208183030381529060405280519060200120905060006104f882611410565b9050600061053e86868080601f01602080910402602001604051908101604052809392919081815260200183838082843760009201919091525086939250506114439050565b9050836001600160a01b0316816001600160a01b0316146105715760405162461bcd60e51b815260040161038a90611992565b60048054604051630852cd8d60e31b81529182018990526001600160a01b0316906342966c6890602401600060405180830381600087803b1580156105b557600080fd5b505af11580156105c9573d6000803e3d6000fd5b505060015460405163a9059cbb60e01b815233600482015266b1a2bc2ec5000060248201526001600160a01b03909116925063a9059cbb91506044016020604051808303816000875af1158015610624573d6000803e3d6000fd5b505050506040513d601f19601f8201168201806040525081019061064891906119e1565b6106645760405162461bcd60e51b815260040161038a90611a03565b60025460405163a9059cbb60e01b81523360048201526706f05b59d3b2000060248201526001600160a01b039091169063a9059cbb906044016020604051808303816000875af11580156106bc573d6000803e3d6000fd5b505050506040513d601f19601f820116820180604052508101906106e091906119e1565b6106fc5760405162461bcd60e51b815260040161038a90611a31565b60035460405163a9059cbb60e01b81523360048201526729a2241af62c000060248201526001600160a01b039091169063a9059cbb906044016020604051808303816000875af1158015610754573d6000803e3d6000fd5b505050506040513d601f19601f8201168201806040525081019061077891906119e1565b6107945760405162461bcd60e51b815260040161038a90611a5f565b60405187815233907f4896181ff8f4543cc00db9fe9b6fb7e6f032b7eb772c72ab1ec1b4d2e03b9369906020015b60405180910390a250505050505050565b600480546040516331a9108f60e11b81529182018590526000916001600160a01b0390911690636352211e90602401602060405180830381865afa15801561081f573d6000803e3d6000fd5b505050506040513d601f19601f820116820180604052508101906108439190611975565b604051662932b232b2b69d60c91b602082015260278101869052909150600090604701604051602081830303815290604052805190602001209050600061088982611410565b905060006108cf86868080601f01602080910402602001604051908101604052809392919081815260200183838082843760009201919091525086939250506114439050565b9050836001600160a01b0316816001600160a01b0316146109025760405162461bcd60e51b815260040161038a90611992565b60048054604051630852cd8d60e31b81529182018990526001600160a01b0316906342966c6890602401600060405180830381600087803b15801561094657600080fd5b505af115801561095a573d6000803e3d6000fd5b505060015460405163a9059cbb60e01b81526001600160a01b03888116600483015266b1a2bc2ec500006024830152909116925063a9059cbb91506044016020604051808303816000875af11580156109b7573d6000803e3d6000fd5b505050506040513d601f19601f820116820180604052508101906109db91906119e1565b6109f75760405162461bcd60e51b815260040161038a90611a03565b60025460405163a9059cbb60e01b81526001600160a01b0386811660048301526706f05b59d3b2000060248301529091169063a9059cbb906044016020604051808303816000875af1158015610a51573d6000803e3d6000fd5b505050506040513d601f19601f82011682018060405250810190610a7591906119e1565b610a915760405162461bcd60e51b815260040161038a90611a31565b60035460405163a9059cbb60e01b81526001600160a01b0386811660048301526729a2241af62c000060248301529091169063a9059cbb906044016020604051808303816000875af1158015610aeb573d6000803e3d6000fd5b505050506040513d601f19601f82011682018060405250810190610b0f91906119e1565b610b2b5760405162461bcd60e51b815260040161038a90611a5f565b836001600160a01b03167f4896181ff8f4543cc00db9fe9b6fb7e6f032b7eb772c72ab1ec1b4d2e03b9369886040516107c291815260200190565b600480546040516331a9108f60e11b815291820183905233916001600160a01b0390911690636352211e90602401602060405180830381865afa158015610bb1573d6000803e3d6000fd5b505050506040513d601f19601f82011682018060405250810190610bd59190611975565b6001600160a01b031614610c1b5760405162461bcd60e51b815260206004820152600d60248201526c2737ba1027232a1037bbb732b960991b604482015260640161038a565b60048054604051630852cd8d60e31b81529182018390526001600160a01b0316906342966c6890602401600060405180830381600087803b158015610c5f57600080fd5b505af1158015610c73573d6000803e3d6000fd5b505060015460405163a9059cbb60e01b815233600482015266b1a2bc2ec5000060248201526001600160a01b03909116925063a9059cbb91506044016020604051808303816000875af1158015610cce573d6000803e3d6000fd5b505050506040513d601f19601f82011682018060405250810190610cf291906119e1565b610d0e5760405162461bcd60e51b815260040161038a90611a03565b60025460405163a9059cbb60e01b81523360048201526706f05b59d3b2000060248201526001600160a01b039091169063a9059cbb906044016020604051808303816000875af1158015610d66573d6000803e3d6000fd5b505050506040513d601f19601f82011682018060405250810190610d8a91906119e1565b610da65760405162461bcd60e51b815260040161038a90611a31565b60035460405163a9059cbb60e01b81523360048201526729a2241af62c000060248201526001600160a01b039091169063a9059cbb906044016020604051808303816000875af1158015610dfe573d6000803e3d6000fd5b505050506040513d601f19601f82011682018060405250810190610e2291906119e1565b610e3e5760405162461bcd60e51b815260040161038a90611a5f565b60405181815233907f4896181ff8f4543cc00db9fe9b6fb7e6f032b7eb772c72ab1ec1b4d2e03b93699060200160405180910390a250565b6001546040516323b872dd60e01b81526001600160a01b03909116906323b872dd90610eb1903390309066b1a2bc2ec50000906004016119bd565b6020604051808303816000875af1158015610ed0573d6000803e3d6000fd5b505050506040513d601f19601f82011682018060405250810190610ef491906119e1565b610f105760405162461bcd60e51b815260040161038a90611a03565b6002546040516323b872dd60e01b81526001600160a01b03909116906323b872dd90610f4c90339030906706f05b59d3b20000906004016119bd565b6020604051808303816000875af1158015610f6b573d6000803e3d6000fd5b505050506040513d601f19601f82011682018060405250810190610f8f91906119e1565b610fab5760405162461bcd60e51b815260040161038a90611a31565b6003546040516323b872dd60e01b81526001600160a01b03909116906323b872dd90610fe790339030906729a2241af62c0000906004016119bd565b6020604051808303816000875af1158015611006573d6000803e3d6000fd5b505050506040513d601f19601f8201168201806040525081019061102a91906119e1565b6110465760405162461bcd60e51b815260040161038a90611a5f565b60058054908190600061105883611a8d565b9091555050600480546040516322b4ab3f60e21b81526001600160a01b0390911691638ad2acfc916110939133918691600091899101611ab4565b600060405180830381600087803b1580156110ad57600080fd5b505af11580156110c1573d6000803e3d6000fd5b50506040518381523392507f2da466a7b24304f47e87fa2e1e5a81b9831ce54fec19055ce277ca2f39ba42c4915060200160405180910390a2505050565b611107611467565b6001600160a01b03811661116c5760405162461bcd60e51b815260206004820152602660248201527f4f776e61626c653a206e6577206f776e657220697320746865207a65726f206160448201526564647265737360d01b606482015260840161038a565b611175816114c1565b50565b6001546040516323b872dd60e01b81526001600160a01b03909116906323b872dd906111b3903390309066b1a2bc2ec50000906004016119bd565b6020604051808303816000875af11580156111d2573d6000803e3d6000fd5b505050506040513d601f19601f820116820180604052508101906111f691906119e1565b6112125760405162461bcd60e51b815260040161038a90611a03565b6002546040516323b872dd60e01b81526001600160a01b03909116906323b872dd9061124e90339030906706f05b59d3b20000906004016119bd565b6020604051808303816000875af115801561126d573d6000803e3d6000fd5b505050506040513d601f19601f8201168201806040525081019061129191906119e1565b6112ad5760405162461bcd60e51b815260040161038a90611a31565b6003546040516323b872dd60e01b81526001600160a01b03909116906323b872dd906112e990339030906729a2241af62c0000906004016119bd565b6020604051808303816000875af1158015611308573d6000803e3d6000fd5b505050506040513d601f19601f8201168201806040525081019061132c91906119e1565b6113485760405162461bcd60e51b815260040161038a90611a5f565b60058054908190600061135a83611a8d565b9091555050600480546040516322b4ab3f60e21b81526001600160a01b0390911691638ad2acfc916113959188918691600091899101611ab4565b600060405180830381600087803b1580156113af57600080fd5b505af11580156113c3573d6000803e3d6000fd5b50505050836001600160a01b03167f2da466a7b24304f47e87fa2e1e5a81b9831ce54fec19055ce277ca2f39ba42c48260405161140291815260200190565b60405180910390a250505050565b7f19457468657265756d205369676e6564204d6573736167653a0a3332000000006000908152601c91909152603c902090565b60008060006114528585611511565b9150915061145f81611556565b509392505050565b6000546001600160a01b031633146104405760405162461bcd60e51b815260206004820181905260248201527f4f776e61626c653a2063616c6c6572206973206e6f7420746865206f776e6572604482015260640161038a565b600080546001600160a01b038381166001600160a01b0319831681178455604051919092169283917f8be0079c531659141344cd1fd0a4f28419497f9722a3daafe3b4186f6b6457e09190a35050565b60008082516041036115475760208301516040840151606085015160001a61153b878285856116a0565b9450945050505061154f565b506000905060025b9250929050565b600081600481111561156a5761156a611b20565b036115725750565b600181600481111561158657611586611b20565b036115d35760405162461bcd60e51b815260206004820152601860248201527f45434453413a20696e76616c6964207369676e61747572650000000000000000604482015260640161038a565b60028160048111156115e7576115e7611b20565b036116345760405162461bcd60e51b815260206004820152601f60248201527f45434453413a20696e76616c6964207369676e6174757265206c656e67746800604482015260640161038a565b600381600481111561164857611648611b20565b036111755760405162461bcd60e51b815260206004820152602260248201527f45434453413a20696e76616c6964207369676e6174757265202773272076616c604482015261756560f01b606482015260840161038a565b6000807f7fffffffffffffffffffffffffffffff5d576e7357a4501ddfe92f46681b20a08311156116d7575060009050600361175b565b6040805160008082526020820180845289905260ff881692820192909252606081018690526080810185905260019060a0016020604051602081039080840390855afa15801561172b573d6000803e3d6000fd5b5050604051601f1901519150506001600160a01b0381166117545760006001925092505061175b565b9150600090505b94509492505050565b60008060006040848603121561177957600080fd5b83359250602084013567ffffffffffffffff8082111561179857600080fd5b818601915086601f8301126117ac57600080fd5b8135818111156117bb57600080fd5b8760208285010111156117cd57600080fd5b6020830194508093505050509250925092565b6000602082840312156117f257600080fd5b5035919050565b634e487b7160e01b600052604160045260246000fd5b600082601f83011261182057600080fd5b813567ffffffffffffffff8082111561183b5761183b6117f9565b604051601f8301601f19908116603f01168101908282118183101715611863576118636117f9565b8160405283815286602085880101111561187c57600080fd5b836020870160208301376000602085830101528094505050505092915050565b600080604083850312156118af57600080fd5b82359150602083013567ffffffffffffffff8111156118cd57600080fd5b6118d98582860161180f565b9150509250929050565b6001600160a01b038116811461117557600080fd5b60006020828403121561190a57600080fd5b8135611915816118e3565b9392505050565b60008060006060848603121561193157600080fd5b833561193c816118e3565b925060208401359150604084013567ffffffffffffffff81111561195f57600080fd5b61196b8682870161180f565b9150509250925092565b60006020828403121561198757600080fd5b8151611915816118e3565b602080825260119082015270496e76616c6964207369676e617475726560781b604082015260600190565b6001600160a01b039384168152919092166020820152604081019190915260600190565b6000602082840312156119f357600080fd5b8151801515811461191557600080fd5b60208082526014908201527315d09510c81d1c985b9cd9995c8819985a5b195960621b604082015260600190565b60208082526014908201527315d15512081d1c985b9cd9995c8819985a5b195960621b604082015260600190565b60208082526014908201527315d31510c81d1c985b9cd9995c8819985a5b195960621b604082015260600190565b600060018201611aad57634e487b7160e01b600052601160045260246000fd5b5060010190565b60018060a01b038516815260006020858184015284604084015260806060840152835180608085015260005b81811015611afc5785810183015185820160a001528201611ae0565b50600060a0828601015260a0601f19601f8301168501019250505095945050505050565b634e487b7160e01b600052602160045260246000fdfea26469706673582212208eca2ebaae69ab79fa92ddaf74c6c87be9cbbe26d32cb90f9297a671f594308364736f6c63430008110033",
  "linkReferences": {},
  "deployedLinkReferences": {}
}