{
  "_format": "hh-sol-artifact-1",
  "contractName": "SilverbacksVault",
  "sourceName": "contracts/SilverbacksVault.sol",
  "abi": [
    {
      "inputs": [
        {
          "internalType": "address",
          "name": "_stableCoin",
          "type": "address"
        },
        {
          "internalType": "address",
          "name": "_silverbacksNFT",
          "type": "address"
        }
      ],
      "stateMutability": "nonpayable",
      "type": "constructor"
    },
    {
      "anonymous": false,
      "inputs": [
        {
          "indexed": true,
          "internalType": "address",
          "name": "depositor",
          "type": "address"
        },
        {
          "indexed": false,
          "internalType": "uint256",
          "name": "depositAmount",
          "type": "uint256"
        },
        {
          "indexed": false,
          "internalType": "uint256",
          "name": "mintedCount",
          "type": "uint256"
        },
        {
          "indexed": false,
          "internalType": "uint256",
          "name": "remainder",
          "type": "uint256"
        }
      ],
      "name": "Deposited",
      "type": "event"
    },
    {
      "anonymous": false,
      "inputs": [
        {
          "indexed": true,
          "internalType": "address",
          "name": "previousOwner",
          "type": "address"
        },
        {
          "indexed": true,
          "internalType": "address",
          "name": "newOwner",
          "type": "address"
        }
      ],
      "name": "OwnershipTransferred",
      "type": "event"
    },
    {
      "anonymous": false,
      "inputs": [
        {
          "indexed": true,
          "internalType": "address",
          "name": "redeemer",
          "type": "address"
        },
        {
          "indexed": false,
          "internalType": "uint256",
          "name": "tokenId",
          "type": "uint256"
        },
        {
          "indexed": false,
          "internalType": "uint256",
          "name": "faceValue",
          "type": "uint256"
        }
      ],
      "name": "Redeemed",
      "type": "event"
    },
    {
      "inputs": [
        {
          "internalType": "uint256",
          "name": "depositAmount",
          "type": "uint256"
        }
      ],
      "name": "deposit",
      "outputs": [],
      "stateMutability": "nonpayable",
      "type": "function"
    },
    {
      "inputs": [],
      "name": "nextTokenId",
      "outputs": [
        {
          "internalType": "uint256",
          "name": "",
          "type": "uint256"
        }
      ],
      "stateMutability": "view",
      "type": "function"
    },
    {
      "inputs": [],
      "name": "owner",
      "outputs": [
        {
          "internalType": "address",
          "name": "",
          "type": "address"
        }
      ],
      "stateMutability": "view",
      "type": "function"
    },
    {
      "inputs": [
        {
          "internalType": "uint256",
          "name": "tokenId",
          "type": "uint256"
        }
      ],
      "name": "redeem",
      "outputs": [],
      "stateMutability": "nonpayable",
      "type": "function"
    },
    {
      "inputs": [],
      "name": "renounceOwnership",
      "outputs": [],
      "stateMutability": "nonpayable",
      "type": "function"
    },
    {
      "inputs": [],
      "name": "silverbacksNFT",
      "outputs": [
        {
          "internalType": "contract SilverbacksNFT",
          "name": "",
          "type": "address"
        }
      ],
      "stateMutability": "view",
      "type": "function"
    },
    {
      "inputs": [],
      "name": "stableCoin",
      "outputs": [
        {
          "internalType": "contract IERC20",
          "name": "",
          "type": "address"
        }
      ],
      "stateMutability": "view",
      "type": "function"
    },
    {
      "inputs": [
        {
          "internalType": "address",
          "name": "newOwner",
          "type": "address"
        }
      ],
      "name": "transferOwnership",
      "outputs": [],
      "stateMutability": "nonpayable",
      "type": "function"
    }
  ],
  "bytecode": "0x608060405234801561001057600080fd5b50604051610e9e380380610e9e83398101604081905261002f916100da565b6100383361006e565b600180546001600160a01b039384166001600160a01b03199182161790915560028054929093169116179055600060035561010d565b600080546001600160a01b038381166001600160a01b0319831681178455604051919092169283917f8be0079c531659141344cd1fd0a4f28419497f9722a3daafe3b4186f6b6457e09190a35050565b80516001600160a01b03811681146100d557600080fd5b919050565b600080604083850312156100ed57600080fd5b6100f6836100be565b9150610104602084016100be565b90509250929050565b610d828061011c6000396000f3fe608060405234801561001057600080fd5b50600436106100885760003560e01c8063992642e51161005b578063992642e5146100ef578063b6b55f2514610102578063db006a7514610115578063f2fde38b1461012857600080fd5b80631a2320cc1461008d578063715018a6146100bd57806375794a3c146100c75780638da5cb5b146100de575b600080fd5b6002546100a0906001600160a01b031681565b6040516001600160a01b0390911681526020015b60405180910390f35b6100c561013b565b005b6100d060035481565b6040519081526020016100b4565b6000546001600160a01b03166100a0565b6001546100a0906001600160a01b031681565b6100c5610110366004610a13565b61014f565b6100c5610123366004610a13565b6104d8565b6100c5610136366004610a41565b6107ae565b610143610827565b61014d6000610881565b565b610171604051806060016040528060268152602001610d2760269139336108d1565b610193604051806060016040528060338152602001610c9e603391398261091a565b68056bc75e2d631000008110156102015760405162461bcd60e51b815260206004820152602760248201527f4d696e696d756d206465706f736974206973202431303020776f727468206f6660448201526620746f6b656e7360c81b60648201526084015b60405180910390fd5b6001546040516323b872dd60e01b8152336004820152306024820152604481018390526001600160a01b03909116906323b872dd906064016020604051808303816000875af1158015610258573d6000803e3d6000fd5b505050506040513d601f19601f8201168201806040525081019061027c9190610a65565b6102ba5760405162461bcd60e51b815260206004820152600f60248201526e151c985b9cd9995c8819985a5b1959608a1b60448201526064016101f8565b60006102cf68056bc75e2d6310000083610ab3565b905060006102e668056bc75e2d6310000084610ac7565b905080156103ca57610310604051806060016040528060228152602001610cd1602291398261091a565b60015460405163a9059cbb60e01b8152336004820152602481018390526001600160a01b039091169063a9059cbb906044016020604051808303816000875af1158015610361573d6000803e3d6000fd5b505050506040513d601f19601f820116820180604052508101906103859190610a65565b6103ca5760405162461bcd60e51b81526020600482015260166024820152751499599d5b99081d1c985b9cd9995c8819985a5b195960521b60448201526064016101f8565b60005b8281101561048e576003805490819060006103e783610adb565b919050555061040f6040518060600160405280602e8152602001610c70602e9139823361095f565b6002546040516346b2331b60e01b8152336004820152602481018390526064604482018190526001600160a01b03909216916346b2331b9101600060405180830381600087803b15801561046257600080fd5b505af1158015610476573d6000803e3d6000fd5b5050505050808061048690610adb565b9150506103cd565b50604080518481526020810184905290810182905233907f91ede45f04a37a7c170f5c1207df3b6bc748dc1e04ad5e917a241d0f52feada3906060015b60405180910390a2505050565b6104fb604051806060016040528060358152602001610c3b6035913933836109ab565b6002546040516331a9108f60e11b81526004810183905233916001600160a01b031690636352211e90602401602060405180830381865afa158015610544573d6000803e3d6000fd5b505050506040513d601f19601f820116820180604052508101906105689190610af4565b6001600160a01b0316146105ae5760405162461bcd60e51b815260206004820152600d60248201526c2737ba1027232a1037bbb732b960991b60448201526064016101f8565b600254604051637f46dec760e11b8152600481018390526000916001600160a01b03169063fe8dbd8e90602401602060405180830381865afa1580156105f8573d6000803e3d6000fd5b505050506040513d601f19601f8201168201806040525081019061061c9190610b11565b9050610640604051806060016040528060348152602001610cf3603491398261091a565b600254604051630852cd8d60e31b8152600481018490526001600160a01b03909116906342966c6890602401600060405180830381600087803b15801561068657600080fd5b505af115801561069a573d6000803e3d6000fd5b50505050600081670de0b6b3a76400006106b49190610b2a565b60015460405163a9059cbb60e01b8152336004820152602481018390529192506001600160a01b03169063a9059cbb906044016020604051808303816000875af1158015610706573d6000803e3d6000fd5b505050506040513d601f19601f8201168201806040525081019061072a9190610a65565b6107765760405162461bcd60e51b815260206004820152601a60248201527f537461626c65636f696e207472616e73666572206661696c656400000000000060448201526064016101f8565b604080518481526020810184905233917ff3a670cd3af7d64b488926880889d08a8585a138ff455227af6737339a1ec26291016104cb565b6107b6610827565b6001600160a01b03811661081b5760405162461bcd60e51b815260206004820152602660248201527f4f776e61626c653a206e6577206f776e657220697320746865207a65726f206160448201526564647265737360d01b60648201526084016101f8565b61082481610881565b50565b6000546001600160a01b0316331461014d5760405162461bcd60e51b815260206004820181905260248201527f4f776e61626c653a2063616c6c6572206973206e6f7420746865206f776e657260448201526064016101f8565b600080546001600160a01b038381166001600160a01b0319831681178455604051919092169283917f8be0079c531659141344cd1fd0a4f28419497f9722a3daafe3b4186f6b6457e09190a35050565b61091682826040516024016108e7929190610b8d565b60408051601f198184030181529190526020810180516001600160e01b031663319af33360e01b1790526109ee565b5050565b6109168282604051602401610930929190610bb7565b60408051601f198184030181529190526020810180516001600160e01b0316632d839cb360e21b1790526109ee565b6109a683838360405160240161097793929190610bd9565b60408051601f198184030181529190526020810180516001600160e01b031663038fd88960e31b1790526109ee565b505050565b6109a68383836040516024016109c393929190610c0c565b60408051601f198184030181529190526020810180516001600160e01b0316630d26b92560e01b1790525b6108248160006a636f6e736f6c652e6c6f679050600080835160208501845afa505050565b600060208284031215610a2557600080fd5b5035919050565b6001600160a01b038116811461082457600080fd5b600060208284031215610a5357600080fd5b8135610a5e81610a2c565b9392505050565b600060208284031215610a7757600080fd5b81518015158114610a5e57600080fd5b634e487b7160e01b600052601260045260246000fd5b634e487b7160e01b600052601160045260246000fd5b600082610ac257610ac2610a87565b500490565b600082610ad657610ad6610a87565b500690565b600060018201610aed57610aed610a9d565b5060010190565b600060208284031215610b0657600080fd5b8151610a5e81610a2c565b600060208284031215610b2357600080fd5b5051919050565b8082028115828204841417610b4157610b41610a9d565b92915050565b6000815180845260005b81811015610b6d57602081850181015186830182015201610b51565b506000602082860101526020601f19601f83011685010191505092915050565b604081526000610ba06040830185610b47565b905060018060a01b03831660208301529392505050565b604081526000610bca6040830185610b47565b90508260208301529392505050565b606081526000610bec6060830186610b47565b6020830194909452506001600160a01b0391909116604090910152919050565b606081526000610c1f6060830186610b47565b6001600160a01b03949094166020830152506040015291905056fe53696c7665726261636b735661756c742e72656465656d2063616c6c65642062793a20257320666f7220746f6b656e49643a2025734d696e74696e67204e4654207769746820746f6b656e49643a20257320666f72206465706f7369746f723a2025734465706f73697420616d6f756e743a202573206261736520756e6974732028692e652e2031653138203d203120746f6b656e29526566756e64696e672072656d61696e6465723a202573206261736520756e69747352656465656d696e67204e46542077697468206661636556616c75653a2025732028696e202777686f6c6520746f6b656e73272953696c7665726261636b735661756c742e6465706f7369742063616c6c65642062793a202573a2646970667358221220f1e840ed63bc171c02efd822053d6ce1cfdbf75d9165bec3ec1108d1e403c13864736f6c63430008110033",
  "linkReferences": {},
  "deployedLinkReferences": {}
}