{
  "_format": "hh-sol-artifact-1",
  "contractName": "SilverbacksVault",
  "sourceName": "contracts/SilverbacksVault.sol",
  "abi": [
    {
      "inputs": [
        {
          "internalType": "address",
          "name": "_stableCoin",
          "type": "address"
        },
        {
          "internalType": "address",
          "name": "_silverbacksNFT",
          "type": "address"
        }
      ],
      "stateMutability": "nonpayable",
      "type": "constructor"
    },
    {
      "anonymous": false,
      "inputs": [
        {
          "indexed": true,
          "internalType": "address",
          "name": "depositor",
          "type": "address"
        },
        {
          "indexed": false,
          "internalType": "uint256",
          "name": "depositAmount",
          "type": "uint256"
        },
        {
          "indexed": false,
          "internalType": "uint256",
          "name": "mintedCount",
          "type": "uint256"
        },
        {
          "indexed": false,
          "internalType": "uint256",
          "name": "remainder",
          "type": "uint256"
        }
      ],
      "name": "Deposited",
      "type": "event"
    },
    {
      "anonymous": false,
      "inputs": [
        {
          "indexed": true,
          "internalType": "address",
          "name": "previousOwner",
          "type": "address"
        },
        {
          "indexed": true,
          "internalType": "address",
          "name": "newOwner",
          "type": "address"
        }
      ],
      "name": "OwnershipTransferred",
      "type": "event"
    },
    {
      "anonymous": false,
      "inputs": [
        {
          "indexed": true,
          "internalType": "address",
          "name": "redeemer",
          "type": "address"
        },
        {
          "indexed": false,
          "internalType": "uint256",
          "name": "tokenId",
          "type": "uint256"
        },
        {
          "indexed": false,
          "internalType": "uint256",
          "name": "faceValue",
          "type": "uint256"
        }
      ],
      "name": "Redeemed",
      "type": "event"
    },
    {
      "inputs": [
        {
          "internalType": "uint256",
          "name": "depositAmount",
          "type": "uint256"
        }
      ],
      "name": "deposit",
      "outputs": [],
      "stateMutability": "nonpayable",
      "type": "function"
    },
    {
      "inputs": [],
      "name": "nextTokenId",
      "outputs": [
        {
          "internalType": "uint256",
          "name": "",
          "type": "uint256"
        }
      ],
      "stateMutability": "view",
      "type": "function"
    },
    {
      "inputs": [],
      "name": "owner",
      "outputs": [
        {
          "internalType": "address",
          "name": "",
          "type": "address"
        }
      ],
      "stateMutability": "view",
      "type": "function"
    },
    {
      "inputs": [
        {
          "internalType": "uint256",
          "name": "tokenId",
          "type": "uint256"
        }
      ],
      "name": "redeem",
      "outputs": [],
      "stateMutability": "nonpayable",
      "type": "function"
    },
    {
      "inputs": [],
      "name": "renounceOwnership",
      "outputs": [],
      "stateMutability": "nonpayable",
      "type": "function"
    },
    {
      "inputs": [],
      "name": "silverbacksNFT",
      "outputs": [
        {
          "internalType": "contract SilverbacksNFT",
          "name": "",
          "type": "address"
        }
      ],
      "stateMutability": "view",
      "type": "function"
    },
    {
      "inputs": [],
      "name": "stableCoin",
      "outputs": [
        {
          "internalType": "contract IERC20",
          "name": "",
          "type": "address"
        }
      ],
      "stateMutability": "view",
      "type": "function"
    },
    {
      "inputs": [
        {
          "internalType": "address",
          "name": "newOwner",
          "type": "address"
        }
      ],
      "name": "transferOwnership",
      "outputs": [],
      "stateMutability": "nonpayable",
      "type": "function"
    }
  ],
  "bytecode": "0x608060405234801561001057600080fd5b50604051610e07380380610e0783398101604081905261002f916100da565b6100383361006e565b600180546001600160a01b039384166001600160a01b03199182161790915560028054929093169116179055600060035561010d565b600080546001600160a01b038381166001600160a01b0319831681178455604051919092169283917f8be0079c531659141344cd1fd0a4f28419497f9722a3daafe3b4186f6b6457e09190a35050565b80516001600160a01b03811681146100d557600080fd5b919050565b600080604083850312156100ed57600080fd5b6100f6836100be565b9150610104602084016100be565b90509250929050565b610ceb8061011c6000396000f3fe608060405234801561001057600080fd5b50600436106100885760003560e01c8063992642e51161005b578063992642e5146100ef578063b6b55f2514610102578063db006a7514610115578063f2fde38b1461012857600080fd5b80631a2320cc1461008d578063715018a6146100bd57806375794a3c146100c75780638da5cb5b146100de575b600080fd5b6002546100a0906001600160a01b031681565b6040516001600160a01b0390911681526020015b60405180910390f35b6100c561013b565b005b6100d060035481565b6040519081526020016100b4565b6000546001600160a01b03166100a0565b6001546100a0906001600160a01b031681565b6100c5610110366004610a09565b61014f565b6100c5610123366004610a09565b6104de565b6100c5610136366004610a37565b6107a4565b61014361081d565b61014d6000610877565b565b610171604051806060016040528060268152602001610c9060269139336108c7565b6101a5604051806040016040528060128152602001714465706f73697420616d6f756e743a20257360701b81525082610910565b60648110156101fb5760405162461bcd60e51b815260206004820152601760248201527f4d696e696d756d206465706f736974206973202431303000000000000000000060448201526064015b60405180910390fd5b6001546040516323b872dd60e01b8152336004820152306024820152604481018390526001600160a01b03909116906323b872dd906064016020604051808303816000875af1158015610252573d6000803e3d6000fd5b505050506040513d601f19601f820116820180604052508101906102769190610a5b565b6102b45760405162461bcd60e51b815260206004820152600f60248201526e151c985b9cd9995c8819985a5b1959608a1b60448201526064016101f2565b60006102c1606483610a93565b905060006102d0606484610aa7565b905080156103d1576103176040518060400160405280601781526020017f526566756e64696e672072656d61696e6465723a20257300000000000000000081525082610910565b60015460405163a9059cbb60e01b8152336004820152602481018390526001600160a01b039091169063a9059cbb906044016020604051808303816000875af1158015610368573d6000803e3d6000fd5b505050506040513d601f19601f8201168201806040525081019061038c9190610a5b565b6103d15760405162461bcd60e51b81526020600482015260166024820152751499599d5b99081d1c985b9cd9995c8819985a5b195960521b60448201526064016101f2565b60005b82811015610495576003805490819060006103ee83610abb565b91905055506104166040518060600160405280602e8152602001610c41602e91398233610955565b6002546040516346b2331b60e01b8152336004820152602481018390526064604482018190526001600160a01b03909216916346b2331b9101600060405180830381600087803b15801561046957600080fd5b505af115801561047d573d6000803e3d6000fd5b5050505050808061048d90610abb565b9150506103d4565b50604080518481526020810184905290810182905233907f91ede45f04a37a7c170f5c1207df3b6bc748dc1e04ad5e917a241d0f52feada39060600160405180910390a2505050565b610501604051806060016040528060358152602001610c0c6035913933836109a1565b6002546040516331a9108f60e11b81526004810183905233916001600160a01b031690636352211e90602401602060405180830381865afa15801561054a573d6000803e3d6000fd5b505050506040513d601f19601f8201168201806040525081019061056e9190610ae2565b6001600160a01b0316146105b45760405162461bcd60e51b815260206004820152600d60248201526c2737ba1027232a1037bbb732b960991b60448201526064016101f2565b600254604051637f46dec760e11b8152600481018390526000916001600160a01b03169063fe8dbd8e90602401602060405180830381865afa1580156105fe573d6000803e3d6000fd5b505050506040513d601f19601f820116820180604052508101906106229190610aff565b9050610646604051806060016040528060218152602001610c6f6021913982610910565b600254604051630852cd8d60e31b8152600481018490526001600160a01b03909116906342966c6890602401600060405180830381600087803b15801561068c57600080fd5b505af11580156106a0573d6000803e3d6000fd5b505060015460405163a9059cbb60e01b8152336004820152602481018590526001600160a01b03909116925063a9059cbb91506044016020604051808303816000875af11580156106f5573d6000803e3d6000fd5b505050506040513d601f19601f820116820180604052508101906107199190610a5b565b6107655760405162461bcd60e51b815260206004820152601a60248201527f537461626c65636f696e207472616e73666572206661696c656400000000000060448201526064016101f2565b604080518381526020810183905233917ff3a670cd3af7d64b488926880889d08a8585a138ff455227af6737339a1ec262910160405180910390a25050565b6107ac61081d565b6001600160a01b0381166108115760405162461bcd60e51b815260206004820152602660248201527f4f776e61626c653a206e6577206f776e657220697320746865207a65726f206160448201526564647265737360d01b60648201526084016101f2565b61081a81610877565b50565b6000546001600160a01b0316331461014d5760405162461bcd60e51b815260206004820181905260248201527f4f776e61626c653a2063616c6c6572206973206e6f7420746865206f776e657260448201526064016101f2565b600080546001600160a01b038381166001600160a01b0319831681178455604051919092169283917f8be0079c531659141344cd1fd0a4f28419497f9722a3daafe3b4186f6b6457e09190a35050565b61090c82826040516024016108dd929190610b5e565b60408051601f198184030181529190526020810180516001600160e01b031663319af33360e01b1790526109e4565b5050565b61090c8282604051602401610926929190610b88565b60408051601f198184030181529190526020810180516001600160e01b0316632d839cb360e21b1790526109e4565b61099c83838360405160240161096d93929190610baa565b60408051601f198184030181529190526020810180516001600160e01b031663038fd88960e31b1790526109e4565b505050565b61099c8383836040516024016109b993929190610bdd565b60408051601f198184030181529190526020810180516001600160e01b0316630d26b92560e01b1790525b61081a8160006a636f6e736f6c652e6c6f679050600080835160208501845afa505050565b600060208284031215610a1b57600080fd5b5035919050565b6001600160a01b038116811461081a57600080fd5b600060208284031215610a4957600080fd5b8135610a5481610a22565b9392505050565b600060208284031215610a6d57600080fd5b81518015158114610a5457600080fd5b634e487b7160e01b600052601260045260246000fd5b600082610aa257610aa2610a7d565b500490565b600082610ab657610ab6610a7d565b500690565b600060018201610adb57634e487b7160e01b600052601160045260246000fd5b5060010190565b600060208284031215610af457600080fd5b8151610a5481610a22565b600060208284031215610b1157600080fd5b5051919050565b6000815180845260005b81811015610b3e57602081850181015186830182015201610b22565b506000602082860101526020601f19601f83011685010191505092915050565b604081526000610b716040830185610b18565b905060018060a01b03831660208301529392505050565b604081526000610b9b6040830185610b18565b90508260208301529392505050565b606081526000610bbd6060830186610b18565b6020830194909452506001600160a01b0391909116604090910152919050565b606081526000610bf06060830186610b18565b6001600160a01b03949094166020830152506040015291905056fe53696c7665726261636b735661756c742e72656465656d2063616c6c65642062793a20257320666f7220746f6b656e49643a2025734d696e74696e67204e4654207769746820746f6b656e49643a20257320666f72206465706f7369746f723a20257352656465656d696e67204e4654207769746820666163652076616c75653a20257353696c7665726261636b735661756c742e6465706f7369742063616c6c65642062793a202573a264697066735822122091e27a7f2b5550849b10016734977a60d5aad02abab8c210cae7a834748d296a64736f6c63430008110033",
  "linkReferences": {},
  "deployedLinkReferences": {}
}