{
  "_format": "hh-sol-artifact-1",
  "contractName": "MultiTokenNFT",
  "sourceName": "contracts/MultiTokenNFT.sol",
  "abi": [
    {
      "inputs": [
        {
          "internalType": "string",
          "name": "name",
          "type": "string"
        },
        {
          "internalType": "string",
          "name": "symbol",
          "type": "string"
        }
      ],
      "stateMutability": "nonpayable",
      "type": "constructor"
    },
    {
      "anonymous": false,
      "inputs": [
        {
          "indexed": true,
          "internalType": "address",
          "name": "owner",
          "type": "address"
        },
        {
          "indexed": true,
          "internalType": "address",
          "name": "approved",
          "type": "address"
        },
        {
          "indexed": true,
          "internalType": "uint256",
          "name": "tokenId",
          "type": "uint256"
        }
      ],
      "name": "Approval",
      "type": "event"
    },
    {
      "anonymous": false,
      "inputs": [
        {
          "indexed": true,
          "internalType": "address",
          "name": "owner",
          "type": "address"
        },
        {
          "indexed": true,
          "internalType": "address",
          "name": "operator",
          "type": "address"
        },
        {
          "indexed": false,
          "internalType": "bool",
          "name": "approved",
          "type": "bool"
        }
      ],
      "name": "ApprovalForAll",
      "type": "event"
    },
    {
      "anonymous": false,
      "inputs": [
        {
          "indexed": true,
          "internalType": "uint256",
          "name": "tokenId",
          "type": "uint256"
        },
        {
          "indexed": true,
          "internalType": "address",
          "name": "burner",
          "type": "address"
        }
      ],
      "name": "BurnedNote",
      "type": "event"
    },
    {
      "anonymous": false,
      "inputs": [
        {
          "indexed": true,
          "internalType": "uint256",
          "name": "tokenId",
          "type": "uint256"
        },
        {
          "indexed": true,
          "internalType": "address",
          "name": "owner",
          "type": "address"
        },
        {
          "indexed": false,
          "internalType": "uint256",
          "name": "value",
          "type": "uint256"
        }
      ],
      "name": "MintedNote",
      "type": "event"
    },
    {
      "anonymous": false,
      "inputs": [
        {
          "indexed": true,
          "internalType": "address",
          "name": "previousOwner",
          "type": "address"
        },
        {
          "indexed": true,
          "internalType": "address",
          "name": "newOwner",
          "type": "address"
        }
      ],
      "name": "OwnershipTransferred",
      "type": "event"
    },
    {
      "anonymous": false,
      "inputs": [
        {
          "indexed": true,
          "internalType": "address",
          "name": "from",
          "type": "address"
        },
        {
          "indexed": true,
          "internalType": "address",
          "name": "to",
          "type": "address"
        },
        {
          "indexed": true,
          "internalType": "uint256",
          "name": "tokenId",
          "type": "uint256"
        }
      ],
      "name": "Transfer",
      "type": "event"
    },
    {
      "inputs": [
        {
          "internalType": "address",
          "name": "to",
          "type": "address"
        },
        {
          "internalType": "uint256",
          "name": "tokenId",
          "type": "uint256"
        }
      ],
      "name": "approve",
      "outputs": [],
      "stateMutability": "nonpayable",
      "type": "function"
    },
    {
      "inputs": [
        {
          "internalType": "address",
          "name": "owner",
          "type": "address"
        }
      ],
      "name": "balanceOf",
      "outputs": [
        {
          "internalType": "uint256",
          "name": "",
          "type": "uint256"
        }
      ],
      "stateMutability": "view",
      "type": "function"
    },
    {
      "inputs": [
        {
          "internalType": "uint256",
          "name": "tokenId",
          "type": "uint256"
        }
      ],
      "name": "burn",
      "outputs": [],
      "stateMutability": "nonpayable",
      "type": "function"
    },
    {
      "inputs": [
        {
          "internalType": "address",
          "name": "from",
          "type": "address"
        },
        {
          "internalType": "address",
          "name": "to",
          "type": "address"
        },
        {
          "internalType": "uint256",
          "name": "tokenId",
          "type": "uint256"
        }
      ],
      "name": "claimTransfer",
      "outputs": [],
      "stateMutability": "nonpayable",
      "type": "function"
    },
    {
      "inputs": [
        {
          "internalType": "uint256",
          "name": "",
          "type": "uint256"
        }
      ],
      "name": "faceValue",
      "outputs": [
        {
          "internalType": "uint256",
          "name": "",
          "type": "uint256"
        }
      ],
      "stateMutability": "view",
      "type": "function"
    },
    {
      "inputs": [
        {
          "internalType": "uint256",
          "name": "tokenId",
          "type": "uint256"
        }
      ],
      "name": "getApproved",
      "outputs": [
        {
          "internalType": "address",
          "name": "",
          "type": "address"
        }
      ],
      "stateMutability": "view",
      "type": "function"
    },
    {
      "inputs": [
        {
          "internalType": "address",
          "name": "owner",
          "type": "address"
        },
        {
          "internalType": "address",
          "name": "operator",
          "type": "address"
        }
      ],
      "name": "isApprovedForAll",
      "outputs": [
        {
          "internalType": "bool",
          "name": "",
          "type": "bool"
        }
      ],
      "stateMutability": "view",
      "type": "function"
    },
    {
      "inputs": [
        {
          "internalType": "address",
          "name": "to",
          "type": "address"
        },
        {
          "internalType": "uint256",
          "name": "tokenId",
          "type": "uint256"
        },
        {
          "internalType": "uint256",
          "name": "value",
          "type": "uint256"
        },
        {
          "internalType": "string",
          "name": "metadataURI",
          "type": "string"
        }
      ],
      "name": "mintNote",
      "outputs": [],
      "stateMutability": "nonpayable",
      "type": "function"
    },
    {
      "inputs": [],
      "name": "name",
      "outputs": [
        {
          "internalType": "string",
          "name": "",
          "type": "string"
        }
      ],
      "stateMutability": "view",
      "type": "function"
    },
    {
      "inputs": [],
      "name": "owner",
      "outputs": [
        {
          "internalType": "address",
          "name": "",
          "type": "address"
        }
      ],
      "stateMutability": "view",
      "type": "function"
    },
    {
      "inputs": [
        {
          "internalType": "uint256",
          "name": "tokenId",
          "type": "uint256"
        }
      ],
      "name": "ownerOf",
      "outputs": [
        {
          "internalType": "address",
          "name": "",
          "type": "address"
        }
      ],
      "stateMutability": "view",
      "type": "function"
    },
    {
      "inputs": [],
      "name": "renounceOwnership",
      "outputs": [],
      "stateMutability": "nonpayable",
      "type": "function"
    },
    {
      "inputs": [
        {
          "internalType": "address",
          "name": "from",
          "type": "address"
        },
        {
          "internalType": "address",
          "name": "to",
          "type": "address"
        },
        {
          "internalType": "uint256",
          "name": "tokenId",
          "type": "uint256"
        }
      ],
      "name": "safeTransferFrom",
      "outputs": [],
      "stateMutability": "nonpayable",
      "type": "function"
    },
    {
      "inputs": [
        {
          "internalType": "address",
          "name": "from",
          "type": "address"
        },
        {
          "internalType": "address",
          "name": "to",
          "type": "address"
        },
        {
          "internalType": "uint256",
          "name": "tokenId",
          "type": "uint256"
        },
        {
          "internalType": "bytes",
          "name": "data",
          "type": "bytes"
        }
      ],
      "name": "safeTransferFrom",
      "outputs": [],
      "stateMutability": "nonpayable",
      "type": "function"
    },
    {
      "inputs": [
        {
          "internalType": "address",
          "name": "operator",
          "type": "address"
        },
        {
          "internalType": "bool",
          "name": "approved",
          "type": "bool"
        }
      ],
      "name": "setApprovalForAll",
      "outputs": [],
      "stateMutability": "nonpayable",
      "type": "function"
    },
    {
      "inputs": [
        {
          "internalType": "string",
          "name": "baseURI",
          "type": "string"
        }
      ],
      "name": "setBaseURI",
      "outputs": [],
      "stateMutability": "nonpayable",
      "type": "function"
    },
    {
      "inputs": [
        {
          "internalType": "address",
          "name": "_vaultContract",
          "type": "address"
        }
      ],
      "name": "setVaultContract",
      "outputs": [],
      "stateMutability": "nonpayable",
      "type": "function"
    },
    {
      "inputs": [
        {
          "internalType": "bytes4",
          "name": "interfaceId",
          "type": "bytes4"
        }
      ],
      "name": "supportsInterface",
      "outputs": [
        {
          "internalType": "bool",
          "name": "",
          "type": "bool"
        }
      ],
      "stateMutability": "view",
      "type": "function"
    },
    {
      "inputs": [],
      "name": "symbol",
      "outputs": [
        {
          "internalType": "string",
          "name": "",
          "type": "string"
        }
      ],
      "stateMutability": "view",
      "type": "function"
    },
    {
      "inputs": [
        {
          "internalType": "uint256",
          "name": "index",
          "type": "uint256"
        }
      ],
      "name": "tokenByIndex",
      "outputs": [
        {
          "internalType": "uint256",
          "name": "",
          "type": "uint256"
        }
      ],
      "stateMutability": "view",
      "type": "function"
    },
    {
      "inputs": [
        {
          "internalType": "address",
          "name": "owner",
          "type": "address"
        },
        {
          "internalType": "uint256",
          "name": "index",
          "type": "uint256"
        }
      ],
      "name": "tokenOfOwnerByIndex",
      "outputs": [
        {
          "internalType": "uint256",
          "name": "",
          "type": "uint256"
        }
      ],
      "stateMutability": "view",
      "type": "function"
    },
    {
      "inputs": [
        {
          "internalType": "uint256",
          "name": "tokenId",
          "type": "uint256"
        }
      ],
      "name": "tokenURI",
      "outputs": [
        {
          "internalType": "string",
          "name": "",
          "type": "string"
        }
      ],
      "stateMutability": "view",
      "type": "function"
    },
    {
      "inputs": [],
      "name": "totalSupply",
      "outputs": [
        {
          "internalType": "uint256",
          "name": "",
          "type": "uint256"
        }
      ],
      "stateMutability": "view",
      "type": "function"
    },
    {
      "inputs": [
        {
          "internalType": "address",
          "name": "from",
          "type": "address"
        },
        {
          "internalType": "address",
          "name": "to",
          "type": "address"
        },
        {
          "internalType": "uint256",
          "name": "tokenId",
          "type": "uint256"
        }
      ],
      "name": "transferFrom",
      "outputs": [],
      "stateMutability": "nonpayable",
      "type": "function"
    },
    {
      "inputs": [
        {
          "internalType": "address",
          "name": "newOwner",
          "type": "address"
        }
      ],
      "name": "transferOwnership",
      "outputs": [],
      "stateMutability": "nonpayable",
      "type": "function"
    },
    {
      "inputs": [],
      "name": "vaultContract",
      "outputs": [
        {
          "internalType": "address",
          "name": "",
          "type": "address"
        }
      ],
      "stateMutability": "view",
      "type": "function"
    }
  ],
  "bytecode": "0x60806040523480156200001157600080fd5b506040516200247e3803806200247e833981016040819052620000349162000193565b818160006200004483826200028c565b5060016200005382826200028c565b505050620000706200006a6200007860201b60201c565b6200007c565b505062000358565b3390565b600a80546001600160a01b038381166001600160a01b0319831681179093556040519116919082907f8be0079c531659141344cd1fd0a4f28419497f9722a3daafe3b4186f6b6457e090600090a35050565b634e487b7160e01b600052604160045260246000fd5b600082601f830112620000f657600080fd5b81516001600160401b0380821115620001135762000113620000ce565b604051601f8301601f19908116603f011681019082821181831017156200013e576200013e620000ce565b816040528381526020925086838588010111156200015b57600080fd5b600091505b838210156200017f578582018301518183018401529082019062000160565b600093810190920192909252949350505050565b60008060408385031215620001a757600080fd5b82516001600160401b0380821115620001bf57600080fd5b620001cd86838701620000e4565b93506020850151915080821115620001e457600080fd5b50620001f385828601620000e4565b9150509250929050565b600181811c908216806200021257607f821691505b6020821081036200023357634e487b7160e01b600052602260045260246000fd5b50919050565b601f8211156200028757600081815260208120601f850160051c81016020861015620002625750805b601f850160051c820191505b8181101562000283578281556001016200026e565b5050505b505050565b81516001600160401b03811115620002a857620002a8620000ce565b620002c081620002b98454620001fd565b8462000239565b602080601f831160018114620002f85760008415620002df5750858301515b600019600386901b1c1916600185901b17855562000283565b600085815260208120601f198616915b82811015620003295788860151825594840194600190910190840162000308565b5085821015620003485787850151600019600388901b60f8161c191681555b5050505050600190811b01905550565b61211680620003686000396000f3fe608060405234801561001057600080fd5b506004361061018e5760003560e01c80636352211e116100de57806396f4ada611610097578063c87b56dd11610071578063c87b56dd1461034d578063e985e9c514610360578063f2fde38b1461039c578063fe8dbd8e146103af57600080fd5b806396f4ada614610314578063a22cb46514610327578063b88d4fde1461033a57600080fd5b80636352211e146102ba57806370a08231146102cd578063715018a6146102e05780638ad2acfc146102e85780638da5cb5b146102fb57806395d89b411461030c57600080fd5b806323b872dd1161014b57806342966c681161012557806342966c681461026e57806347f4abdb146102815780634f6ccce71461029457806355f804b3146102a757600080fd5b806323b872dd146102355780632f745c591461024857806342842e0e1461025b57600080fd5b806301ffc9a71461019357806306fdde03146101bb578063081812fc146101d0578063095ea7b3146101fb57806318160ddd146102105780632274346b14610222575b600080fd5b6101a66101a13660046119f7565b6103cf565b60405190151581526020015b60405180910390f35b6101c36103e0565b6040516101b29190611a6b565b6101e36101de366004611a7e565b610472565b6040516001600160a01b0390911681526020016101b2565b61020e610209366004611ab3565b610499565b005b6008545b6040519081526020016101b2565b600e546101e3906001600160a01b031681565b61020e610243366004611add565b6105b3565b610214610256366004611ab3565b6105e4565b61020e610269366004611add565b61067a565b61020e61027c366004611a7e565b610695565b61020e61028f366004611add565b610756565b6102146102a2366004611a7e565b6107cb565b61020e6102b5366004611bc5565b61085e565b6101e36102c8366004611a7e565b610876565b6102146102db366004611bfa565b6108d6565b61020e61095c565b61020e6102f6366004611c15565b610970565b600a546001600160a01b03166101e3565b6101c3610a52565b61020e610322366004611bfa565b610a61565b61020e610335366004611c76565b610a8b565b61020e610348366004611cb2565b610a96565b6101c361035b366004611a7e565b610ace565b6101a661036e366004611d22565b6001600160a01b03918216600090815260056020908152604080832093909416825291909152205460ff1690565b61020e6103aa366004611bfa565b610cd6565b6102146103bd366004611a7e565b600b6020526000908152604090205481565b60006103da82610d4f565b92915050565b6060600080546103ef90611d55565b80601f016020809104026020016040519081016040528092919081815260200182805461041b90611d55565b80156104685780601f1061043d57610100808354040283529160200191610468565b820191906000526020600020905b81548152906001019060200180831161044b57829003601f168201915b5050505050905090565b600061047d82610d74565b506000908152600460205260409020546001600160a01b031690565b60006104a482610876565b9050806001600160a01b0316836001600160a01b0316036105165760405162461bcd60e51b815260206004820152602160248201527f4552433732313a20617070726f76616c20746f2063757272656e74206f776e656044820152603960f91b60648201526084015b60405180910390fd5b336001600160a01b03821614806105325750610532813361036e565b6105a45760405162461bcd60e51b815260206004820152603d60248201527f4552433732313a20617070726f76652063616c6c6572206973206e6f7420746f60448201527f6b656e206f776e6572206f7220617070726f76656420666f7220616c6c000000606482015260840161050d565b6105ae8383610dd3565b505050565b6105bd3382610e41565b6105d95760405162461bcd60e51b815260040161050d90611d8f565b6105ae838383610ebf565b60006105ef836108d6565b82106106515760405162461bcd60e51b815260206004820152602b60248201527f455243373231456e756d657261626c653a206f776e657220696e646578206f7560448201526a74206f6620626f756e647360a81b606482015260840161050d565b506001600160a01b03919091166000908152600660209081526040808320938352929052205490565b6105ae83838360405180602001604052806000815250610a96565b61069f3382610e41565b806106b45750600e546001600160a01b031633145b6106f95760405162461bcd60e51b81526020600482015260166024820152752737ba1030baba3437b934bd32b2103a3790313ab93760511b604482015260640161050d565b61070281611030565b6000818152600b60209081526040808320839055600c909152812061072691611993565b604051339082907f74152fcb642b7cfa9a85bb23ac95000f888e173a5e1edba30c91bb25e6fb508e90600090a350565b600e546001600160a01b031633146107b05760405162461bcd60e51b815260206004820152601a60248201527f4e6f7420617574686f72697a65643a204f6e6c79207661756c74000000000000604482015260640161050d565b6105ae838383604051806020016040528060008152506110d3565b60006107d660085490565b82106108395760405162461bcd60e51b815260206004820152602c60248201527f455243373231456e756d657261626c653a20676c6f62616c20696e646578206f60448201526b7574206f6620626f756e647360a01b606482015260840161050d565b6008828154811061084c5761084c611ddc565b90600052602060002001549050919050565b610866611106565b600d6108728282611e40565b5050565b6000818152600260205260408120546001600160a01b0316806103da5760405162461bcd60e51b8152602060048201526018602482015277115490cdcc8c4e881a5b9d985b1a59081d1bdad95b88125160421b604482015260640161050d565b60006001600160a01b0382166109405760405162461bcd60e51b815260206004820152602960248201527f4552433732313a2061646472657373207a65726f206973206e6f7420612076616044820152683634b21037bbb732b960b91b606482015260840161050d565b506001600160a01b031660009081526003602052604090205490565b610964611106565b61096e6000611160565b565b600a546001600160a01b03163314806109935750600e546001600160a01b031633145b6109d85760405162461bcd60e51b8152602060048201526016602482015275139bdd08185d5d1a1bdc9a5e9959081d1bc81b5a5b9d60521b604482015260640161050d565b6109e284846111b2565b6000838152600b60209081526040808320859055600c9091529020610a078282611e40565b50836001600160a01b0316837fd7b641e3911839607e3c54f895f0087d8eb229ffad786643ededb4a5d21cc18084604051610a4491815260200190565b60405180910390a350505050565b6060600180546103ef90611d55565b610a69611106565b600e80546001600160a01b0319166001600160a01b0392909216919091179055565b6108723383836111cc565b610aa03383610e41565b610abc5760405162461bcd60e51b815260040161050d90611d8f565b610ac8848484846110d3565b50505050565b6000818152600260205260409020546060906001600160a01b0316610b4d5760405162461bcd60e51b815260206004820152602f60248201527f4552433732314d657461646174613a2055524920717565727920666f72206e6f60448201526e3732bc34b9ba32b73a103a37b5b2b760891b606482015260840161050d565b6000828152600c602052604081208054610b6690611d55565b80601f0160208091040260200160405190810160405280929190818152602001828054610b9290611d55565b8015610bdf5780601f10610bb457610100808354040283529160200191610bdf565b820191906000526020600020905b815481529060010190602001808311610bc257829003601f168201915b50505050509050600081511115610bf65792915050565b6000600d8054610c0590611d55565b80601f0160208091040260200160405190810160405280929190818152602001828054610c3190611d55565b8015610c7e5780601f10610c5357610100808354040283529160200191610c7e565b820191906000526020600020905b815481529060010190602001808311610c6157829003601f168201915b505050505090506000815111610ca35760405180602001604052806000815250610cce565b80610cad8561129a565b604051602001610cbe929190611f00565b6040516020818303038152906040525b949350505050565b610cde611106565b6001600160a01b038116610d435760405162461bcd60e51b815260206004820152602660248201527f4f776e61626c653a206e6577206f776e657220697320746865207a65726f206160448201526564647265737360d01b606482015260840161050d565b610d4c81611160565b50565b60006001600160e01b0319821663780e9d6360e01b14806103da57506103da826113a6565b6000818152600260205260409020546001600160a01b0316610d4c5760405162461bcd60e51b8152602060048201526018602482015277115490cdcc8c4e881a5b9d985b1a59081d1bdad95b88125160421b604482015260640161050d565b600081815260046020526040902080546001600160a01b0319166001600160a01b0384169081179091558190610e0882610876565b6001600160a01b03167f8c5be1e5ebec7d5bd14f71427d1e84f3dd0314c0f7b2291e5b200ac8c7c3b92560405160405180910390a45050565b600080610e4d83610876565b9050806001600160a01b0316846001600160a01b03161480610e9457506001600160a01b0380821660009081526005602090815260408083209388168352929052205460ff165b80610cce5750836001600160a01b0316610ead84610472565b6001600160a01b031614949350505050565b826001600160a01b0316610ed282610876565b6001600160a01b031614610ef85760405162461bcd60e51b815260040161050d90611f2f565b6001600160a01b038216610f5a5760405162461bcd60e51b8152602060048201526024808201527f4552433732313a207472616e7366657220746f20746865207a65726f206164646044820152637265737360e01b606482015260840161050d565b610f6783838360016113f6565b826001600160a01b0316610f7a82610876565b6001600160a01b031614610fa05760405162461bcd60e51b815260040161050d90611f2f565b600081815260046020908152604080832080546001600160a01b03199081169091556001600160a01b0387811680865260038552838620805460001901905590871680865283862080546001019055868652600290945282852080549092168417909155905184937fddf252ad1be2c89b69c2b068fc378daa952ba7f163c4a11628f55a4df523b3ef91a4505050565b600061103b82610876565b905061104b8160008460016113f6565b61105482610876565b600083815260046020908152604080832080546001600160a01b03199081169091556001600160a01b0385168085526003845282852080546000190190558785526002909352818420805490911690555192935084927fddf252ad1be2c89b69c2b068fc378daa952ba7f163c4a11628f55a4df523b3ef908390a45050565b6110de848484610ebf565b6110ea84848484611402565b610ac85760405162461bcd60e51b815260040161050d90611f74565b600a546001600160a01b0316331461096e5760405162461bcd60e51b815260206004820181905260248201527f4f776e61626c653a2063616c6c6572206973206e6f7420746865206f776e6572604482015260640161050d565b600a80546001600160a01b038381166001600160a01b0319831681179093556040519116919082907f8be0079c531659141344cd1fd0a4f28419497f9722a3daafe3b4186f6b6457e090600090a35050565b610872828260405180602001604052806000815250611503565b816001600160a01b0316836001600160a01b03160361122d5760405162461bcd60e51b815260206004820152601960248201527f4552433732313a20617070726f766520746f2063616c6c657200000000000000604482015260640161050d565b6001600160a01b03838116600081815260056020908152604080832094871680845294825291829020805460ff191686151590811790915591519182527f17307eab39ab6107e8899845ad3d59bd9653f200f220920489ca2b5937696c31910160405180910390a3505050565b6060816000036112c15750506040805180820190915260018152600360fc1b602082015290565b8160005b81156112eb57806112d581611fdc565b91506112e49050600a8361200b565b91506112c5565b60008167ffffffffffffffff81111561130657611306611b19565b6040519080825280601f01601f191660200182016040528015611330576020820181803683370190505b508593509050815b831561139d57611349600a8561201f565b611354906030612033565b60f81b8261136183612046565b9250828151811061137457611374611ddc565b60200101906001600160f81b031916908160001a905350611396600a8561200b565b9350611338565b50949350505050565b60006001600160e01b031982166380ac58cd60e01b14806113d757506001600160e01b03198216635b5e139f60e01b145b806103da57506301ffc9a760e01b6001600160e01b03198316146103da565b610ac884848484611536565b60006001600160a01b0384163b156114f857604051630a85bd0160e11b81526001600160a01b0385169063150b7a029061144690339089908890889060040161205d565b6020604051808303816000875af1925050508015611481575060408051601f3d908101601f1916820190925261147e9181019061209a565b60015b6114de573d8080156114af576040519150601f19603f3d011682016040523d82523d6000602084013e6114b4565b606091505b5080516000036114d65760405162461bcd60e51b815260040161050d90611f74565b805181602001fd5b6001600160e01b031916630a85bd0160e11b149050610cce565b506001949350505050565b61150d838361166a565b61151a6000848484611402565b6105ae5760405162461bcd60e51b815260040161050d90611f74565b60018111156115a55760405162461bcd60e51b815260206004820152603560248201527f455243373231456e756d657261626c653a20636f6e7365637574697665207472604482015274185b9cd9995c9cc81b9bdd081cdd5c1c1bdc9d1959605a1b606482015260840161050d565b816001600160a01b038516611601576115fc81600880546000838152600960205260408120829055600182018355919091527ff3f7a9fe364faab93b216da50a3214154f22a0a2b415b23a84c8169e8b636ee30155565b611624565b836001600160a01b0316856001600160a01b031614611624576116248582611803565b6001600160a01b0384166116405761163b816118a0565b611663565b846001600160a01b0316846001600160a01b03161461166357611663848261194f565b5050505050565b6001600160a01b0382166116c05760405162461bcd60e51b815260206004820181905260248201527f4552433732313a206d696e7420746f20746865207a65726f2061646472657373604482015260640161050d565b6000818152600260205260409020546001600160a01b0316156117255760405162461bcd60e51b815260206004820152601c60248201527f4552433732313a20746f6b656e20616c7265616479206d696e74656400000000604482015260640161050d565b6117336000838360016113f6565b6000818152600260205260409020546001600160a01b0316156117985760405162461bcd60e51b815260206004820152601c60248201527f4552433732313a20746f6b656e20616c7265616479206d696e74656400000000604482015260640161050d565b6001600160a01b038216600081815260036020908152604080832080546001019055848352600290915280822080546001600160a01b0319168417905551839291907fddf252ad1be2c89b69c2b068fc378daa952ba7f163c4a11628f55a4df523b3ef908290a45050565b60006001611810846108d6565b61181a91906120b7565b60008381526007602052604090205490915080821461186d576001600160a01b03841660009081526006602090815260408083208584528252808320548484528184208190558352600790915290208190555b5060009182526007602090815260408084208490556001600160a01b039094168352600681528383209183525290812055565b6008546000906118b2906001906120b7565b600083815260096020526040812054600880549394509092849081106118da576118da611ddc565b9060005260206000200154905080600883815481106118fb576118fb611ddc565b6000918252602080832090910192909255828152600990915260408082208490558582528120556008805480611933576119336120ca565b6001900381819060005260206000200160009055905550505050565b600061195a836108d6565b6001600160a01b039093166000908152600660209081526040808320868452825280832085905593825260079052919091209190915550565b50805461199f90611d55565b6000825580601f106119af575050565b601f016020900490600052602060002090810190610d4c91905b808211156119dd57600081556001016119c9565b5090565b6001600160e01b031981168114610d4c57600080fd5b600060208284031215611a0957600080fd5b8135611a14816119e1565b9392505050565b60005b83811015611a36578181015183820152602001611a1e565b50506000910152565b60008151808452611a57816020860160208601611a1b565b601f01601f19169290920160200192915050565b602081526000611a146020830184611a3f565b600060208284031215611a9057600080fd5b5035919050565b80356001600160a01b0381168114611aae57600080fd5b919050565b60008060408385031215611ac657600080fd5b611acf83611a97565b946020939093013593505050565b600080600060608486031215611af257600080fd5b611afb84611a97565b9250611b0960208501611a97565b9150604084013590509250925092565b634e487b7160e01b600052604160045260246000fd5b600067ffffffffffffffff80841115611b4a57611b4a611b19565b604051601f8501601f19908116603f01168101908282118183101715611b7257611b72611b19565b81604052809350858152868686011115611b8b57600080fd5b858560208301376000602087830101525050509392505050565b600082601f830112611bb657600080fd5b611a1483833560208501611b2f565b600060208284031215611bd757600080fd5b813567ffffffffffffffff811115611bee57600080fd5b610cce84828501611ba5565b600060208284031215611c0c57600080fd5b611a1482611a97565b60008060008060808587031215611c2b57600080fd5b611c3485611a97565b93506020850135925060408501359150606085013567ffffffffffffffff811115611c5e57600080fd5b611c6a87828801611ba5565b91505092959194509250565b60008060408385031215611c8957600080fd5b611c9283611a97565b915060208301358015158114611ca757600080fd5b809150509250929050565b60008060008060808587031215611cc857600080fd5b611cd185611a97565b9350611cdf60208601611a97565b925060408501359150606085013567ffffffffffffffff811115611d0257600080fd5b8501601f81018713611d1357600080fd5b611c6a87823560208401611b2f565b60008060408385031215611d3557600080fd5b611d3e83611a97565b9150611d4c60208401611a97565b90509250929050565b600181811c90821680611d6957607f821691505b602082108103611d8957634e487b7160e01b600052602260045260246000fd5b50919050565b6020808252602d908201527f4552433732313a2063616c6c6572206973206e6f7420746f6b656e206f776e6560408201526c1c881bdc88185c1c1c9bdd9959609a1b606082015260800190565b634e487b7160e01b600052603260045260246000fd5b601f8211156105ae57600081815260208120601f850160051c81016020861015611e195750805b601f850160051c820191505b81811015611e3857828155600101611e25565b505050505050565b815167ffffffffffffffff811115611e5a57611e5a611b19565b611e6e81611e688454611d55565b84611df2565b602080601f831160018114611ea35760008415611e8b5750858301515b600019600386901b1c1916600185901b178555611e38565b600085815260208120601f198616915b82811015611ed257888601518255948401946001909101908401611eb3565b5085821015611ef05787850151600019600388901b60f8161c191681555b5050505050600190811b01905550565b60008351611f12818460208801611a1b565b835190830190611f26818360208801611a1b565b01949350505050565b60208082526025908201527f4552433732313a207472616e736665722066726f6d20696e636f72726563742060408201526437bbb732b960d91b606082015260800190565b60208082526032908201527f4552433732313a207472616e7366657220746f206e6f6e20455243373231526560408201527131b2b4bb32b91034b6b83632b6b2b73a32b960711b606082015260800190565b634e487b7160e01b600052601160045260246000fd5b600060018201611fee57611fee611fc6565b5060010190565b634e487b7160e01b600052601260045260246000fd5b60008261201a5761201a611ff5565b500490565b60008261202e5761202e611ff5565b500690565b808201808211156103da576103da611fc6565b60008161205557612055611fc6565b506000190190565b6001600160a01b038581168252841660208201526040810183905260806060820181905260009061209090830184611a3f565b9695505050505050565b6000602082840312156120ac57600080fd5b8151611a14816119e1565b818103818111156103da576103da611fc6565b634e487b7160e01b600052603160045260246000fdfea26469706673582212204b2f8936275868ca9a12af8ddf87ce03d360363db1827cd9ee9cf5820a0e0c5564736f6c63430008110033",
  "linkReferences": {},
  "deployedLinkReferences": {}
}