{
  "_format": "hh-sol-artifact-1",
  "contractName": "SilverbacksVault",
  "sourceName": "contracts/SilverbacksVault.sol",
  "abi": [
    {
      "inputs": [
        {
          "internalType": "address",
          "name": "_stableCoin",
          "type": "address"
        },
        {
          "internalType": "address",
          "name": "_silverbacksNFT",
          "type": "address"
        }
      ],
      "stateMutability": "nonpayable",
      "type": "constructor"
    },
    {
      "anonymous": false,
      "inputs": [
        {
          "indexed": true,
          "internalType": "address",
          "name": "depositor",
          "type": "address"
        },
        {
          "indexed": false,
          "internalType": "uint256",
          "name": "totalAmount",
          "type": "uint256"
        },
        {
          "indexed": false,
          "internalType": "uint256",
          "name": "mintedCount",
          "type": "uint256"
        }
      ],
      "name": "BatchDeposited",
      "type": "event"
    },
    {
      "anonymous": false,
      "inputs": [
        {
          "indexed": true,
          "internalType": "uint256",
          "name": "tokenId",
          "type": "uint256"
        },
        {
          "indexed": true,
          "internalType": "address",
          "name": "newOwner",
          "type": "address"
        }
      ],
      "name": "ClaimedNFT",
      "type": "event"
    },
    {
      "anonymous": false,
      "inputs": [
        {
          "indexed": true,
          "internalType": "address",
          "name": "depositor",
          "type": "address"
        },
        {
          "indexed": false,
          "internalType": "uint256",
          "name": "depositAmount",
          "type": "uint256"
        },
        {
          "indexed": false,
          "internalType": "uint256",
          "name": "mintedCount",
          "type": "uint256"
        },
        {
          "indexed": false,
          "internalType": "uint256",
          "name": "remainder",
          "type": "uint256"
        }
      ],
      "name": "Deposited",
      "type": "event"
    },
    {
      "anonymous": false,
      "inputs": [
        {
          "indexed": true,
          "internalType": "address",
          "name": "previousOwner",
          "type": "address"
        },
        {
          "indexed": true,
          "internalType": "address",
          "name": "newOwner",
          "type": "address"
        }
      ],
      "name": "OwnershipTransferred",
      "type": "event"
    },
    {
      "anonymous": false,
      "inputs": [
        {
          "indexed": true,
          "internalType": "address",
          "name": "redeemer",
          "type": "address"
        },
        {
          "indexed": false,
          "internalType": "uint256",
          "name": "tokenId",
          "type": "uint256"
        },
        {
          "indexed": false,
          "internalType": "uint256",
          "name": "faceValue",
          "type": "uint256"
        }
      ],
      "name": "Redeemed",
      "type": "event"
    },
    {
      "inputs": [
        {
          "internalType": "address[]",
          "name": "recipients",
          "type": "address[]"
        },
        {
          "internalType": "string[]",
          "name": "metadataURIs",
          "type": "string[]"
        }
      ],
      "name": "batchDeposit",
      "outputs": [],
      "stateMutability": "nonpayable",
      "type": "function"
    },
    {
      "inputs": [
        {
          "internalType": "uint256",
          "name": "tokenId",
          "type": "uint256"
        },
        {
          "internalType": "bytes",
          "name": "signature",
          "type": "bytes"
        }
      ],
      "name": "claimNFT",
      "outputs": [],
      "stateMutability": "nonpayable",
      "type": "function"
    },
    {
      "inputs": [
        {
          "internalType": "uint256",
          "name": "depositAmount",
          "type": "uint256"
        },
        {
          "internalType": "string",
          "name": "metadataURI",
          "type": "string"
        }
      ],
      "name": "deposit",
      "outputs": [],
      "stateMutability": "nonpayable",
      "type": "function"
    },
    {
      "inputs": [
        {
          "internalType": "address",
          "name": "recipient",
          "type": "address"
        },
        {
          "internalType": "uint256",
          "name": "depositAmount",
          "type": "uint256"
        },
        {
          "internalType": "string",
          "name": "metadataURI",
          "type": "string"
        }
      ],
      "name": "depositTo",
      "outputs": [],
      "stateMutability": "nonpayable",
      "type": "function"
    },
    {
      "inputs": [],
      "name": "nextTokenId",
      "outputs": [
        {
          "internalType": "uint256",
          "name": "",
          "type": "uint256"
        }
      ],
      "stateMutability": "view",
      "type": "function"
    },
    {
      "inputs": [],
      "name": "owner",
      "outputs": [
        {
          "internalType": "address",
          "name": "",
          "type": "address"
        }
      ],
      "stateMutability": "view",
      "type": "function"
    },
    {
      "inputs": [
        {
          "internalType": "uint256",
          "name": "tokenId",
          "type": "uint256"
        }
      ],
      "name": "redeem",
      "outputs": [],
      "stateMutability": "nonpayable",
      "type": "function"
    },
    {
      "inputs": [
        {
          "internalType": "uint256",
          "name": "tokenId",
          "type": "uint256"
        },
        {
          "internalType": "bytes",
          "name": "signature",
          "type": "bytes"
        }
      ],
      "name": "redeemTo",
      "outputs": [],
      "stateMutability": "nonpayable",
      "type": "function"
    },
    {
      "inputs": [
        {
          "internalType": "uint256",
          "name": "tokenId",
          "type": "uint256"
        },
        {
          "internalType": "bytes",
          "name": "signature",
          "type": "bytes"
        }
      ],
      "name": "redeemWithAuth",
      "outputs": [],
      "stateMutability": "nonpayable",
      "type": "function"
    },
    {
      "inputs": [],
      "name": "renounceOwnership",
      "outputs": [],
      "stateMutability": "nonpayable",
      "type": "function"
    },
    {
      "inputs": [],
      "name": "silverbacksNFT",
      "outputs": [
        {
          "internalType": "contract SilverbacksNFT",
          "name": "",
          "type": "address"
        }
      ],
      "stateMutability": "view",
      "type": "function"
    },
    {
      "inputs": [],
      "name": "stableCoin",
      "outputs": [
        {
          "internalType": "contract IERC20",
          "name": "",
          "type": "address"
        }
      ],
      "stateMutability": "view",
      "type": "function"
    },
    {
      "inputs": [
        {
          "internalType": "address",
          "name": "newOwner",
          "type": "address"
        }
      ],
      "name": "transferOwnership",
      "outputs": [],
      "stateMutability": "nonpayable",
      "type": "function"
    }
  ],
  "bytecode": "0x60806040523480156200001157600080fd5b5060405162002162380380620021628339810160408190526200003491620000e3565b6200003f3362000076565b600180546001600160a01b039384166001600160a01b0319918216179091556002805492909316911617905560006003556200011b565b600080546001600160a01b038381166001600160a01b0319831681178455604051919092169283917f8be0079c531659141344cd1fd0a4f28419497f9722a3daafe3b4186f6b6457e09190a35050565b80516001600160a01b0381168114620000de57600080fd5b919050565b60008060408385031215620000f757600080fd5b6200010283620000c6565b91506200011260208401620000c6565b90509250929050565b612037806200012b6000396000f3fe608060405234801561001057600080fd5b50600436106100cf5760003560e01c80638da5cb5b1161008c578063db006a7511610066578063db006a7514610195578063f1215d25146101a8578063f2fde38b146101bb578063fe049861146101ce57600080fd5b80638da5cb5b1461015e578063992642e51461016f578063acad8b071461018257600080fd5b80631a2320cc146100d45780631a267c42146101045780631f384d4614610119578063715018a61461012c57806375794a3c146101345780638a2089d31461014b575b600080fd5b6002546100e7906001600160a01b031681565b6040516001600160a01b0390911681526020015b60405180910390f35b6101176101123660046118aa565b6101e1565b005b61011761012736600461196b565b6103b2565b6101176105cf565b61013d60035481565b6040519081526020016100fb565b6101176101593660046118aa565b6105e3565b6000546001600160a01b03166100e7565b6001546100e7906001600160a01b031681565b6101176101903660046118aa565b610850565b6101176101a33660046119d7565b610aba565b6101176101b6366004611a93565b610cc9565b6101176101c9366004611aef565b611019565b6101176101dc366004611b13565b611092565b6002546040516331a9108f60e11b8152600481018590526000916001600160a01b031690636352211e90602401602060405180830381865afa15801561022b573d6000803e3d6000fd5b505050506040513d601f19601f8201168201806040525081019061024f9190611b6c565b6040516521b630b4b69d60d11b6020820152602681018690529091506000906046016040516020818303038152906040528051906020012090506000610294826113c2565b905060006102da86868080601f01602080910402602001604051908101604052809392919081815260200183838082843760009201919091525086939250506113f59050565b9050836001600160a01b0316816001600160a01b0316146103165760405162461bcd60e51b815260040161030d90611b89565b60405180910390fd5b6002546040516347f4abdb60e01b81526001600160a01b03909116906347f4abdb9061034a90879033908c90600401611bb4565b600060405180830381600087803b15801561036457600080fd5b505af1158015610378573d6000803e3d6000fd5b50506040513392508991507f6c31918c2dabe0275b23bef69f1a9e93053553a1e9fc048dde2389137628a8dd90600090a350505050505050565b8281146103f95760405162461bcd60e51b8152602060048201526015602482015274082e4e4c2f240d8cadccee8d040dad2e6dac2e8c6d605b1b604482015260640161030d565b82600061040f68056bc75e2d6310000083611bee565b6001546040516323b872dd60e01b81529192506001600160a01b0316906323b872dd9061044490339030908690600401611bb4565b6020604051808303816000875af1158015610463573d6000803e3d6000fd5b505050506040513d601f19601f820116820180604052508101906104879190611c05565b6104a35760405162461bcd60e51b815260040161030d90611c27565b60005b8281101561058a576002546001600160a01b0316638ad2acfc8888848181106104d1576104d1611c50565b90506020020160208101906104e69190611aef565b60035460648989878181106104fd576104fd611c50565b905060200281019061050f9190611c66565b6040518663ffffffff1660e01b815260040161052f959493929190611cad565b600060405180830381600087803b15801561054957600080fd5b505af115801561055d573d6000803e3d6000fd5b50506003805492509050600061057283611cf9565b9190505550808061058290611cf9565b9150506104a6565b50604080518281526020810184905233917f65c383a46e00ec1c1a487069bc98623d98c7805508d551b249a03813b00f75c891015b60405180910390a2505050505050565b6105d761141b565b6105e16000611475565b565b6002546040516331a9108f60e11b8152600481018590526000916001600160a01b031690636352211e90602401602060405180830381865afa15801561062d573d6000803e3d6000fd5b505050506040513d601f19601f820116820180604052508101906106519190611b6c565b604051662932b232b2b69d60c91b6020820152602781018690529091506000906047016040516020818303038152906040528051906020012090506000610697826113c2565b905060006106dd86868080601f01602080910402602001604051908101604052809392919081815260200183838082843760009201919091525086939250506113f59050565b9050836001600160a01b0316816001600160a01b0316146107105760405162461bcd60e51b815260040161030d90611b89565b600254604051630852cd8d60e31b8152600481018990526001600160a01b03909116906342966c6890602401600060405180830381600087803b15801561075657600080fd5b505af115801561076a573d6000803e3d6000fd5b505060015460405163a9059cbb60e01b815233600482015268056bc75e2d631000006024820181905293506001600160a01b03909116915063a9059cbb906044016020604051808303816000875af11580156107ca573d6000803e3d6000fd5b505050506040513d601f19601f820116820180604052508101906107ee9190611c05565b61080a5760405162461bcd60e51b815260040161030d90611d12565b604080518981526064602082015233917ff3a670cd3af7d64b488926880889d08a8585a138ff455227af6737339a1ec26291015b60405180910390a25050505050505050565b6002546040516331a9108f60e11b8152600481018590526000916001600160a01b031690636352211e90602401602060405180830381865afa15801561089a573d6000803e3d6000fd5b505050506040513d601f19601f820116820180604052508101906108be9190611b6c565b604051662932b232b2b69d60c91b6020820152602781018690529091506000906047016040516020818303038152906040528051906020012090506000610904826113c2565b9050600061094a86868080601f01602080910402602001604051908101604052809392919081815260200183838082843760009201919091525086939250506113f59050565b9050836001600160a01b0316816001600160a01b03161461097d5760405162461bcd60e51b815260040161030d90611b89565b600254604051630852cd8d60e31b8152600481018990526001600160a01b03909116906342966c6890602401600060405180830381600087803b1580156109c357600080fd5b505af11580156109d7573d6000803e3d6000fd5b505060015460405163a9059cbb60e01b81526001600160a01b03888116600483015268056bc75e2d63100000602483018190529450909116915063a9059cbb906044016020604051808303816000875af1158015610a39573d6000803e3d6000fd5b505050506040513d601f19601f82011682018060405250810190610a5d9190611c05565b610a795760405162461bcd60e51b815260040161030d90611d12565b60408051898152606460208201526001600160a01b038716917ff3a670cd3af7d64b488926880889d08a8585a138ff455227af6737339a1ec262910161083e565b610add604051806060016040528060358152602001611f426035913933836114c5565b6002546040516331a9108f60e11b81526004810183905233916001600160a01b031690636352211e90602401602060405180830381865afa158015610b26573d6000803e3d6000fd5b505050506040513d601f19601f82011682018060405250810190610b4a9190611b6c565b6001600160a01b031614610b905760405162461bcd60e51b815260206004820152600d60248201526c2737ba1027232a1037bbb732b960991b604482015260640161030d565b600254604051630852cd8d60e31b8152600481018390526001600160a01b03909116906342966c6890602401600060405180830381600087803b158015610bd657600080fd5b505af1158015610bea573d6000803e3d6000fd5b505060015460405163a9059cbb60e01b815233600482015268056bc75e2d631000006024820181905293506001600160a01b03909116915063a9059cbb906044016020604051808303816000875af1158015610c4a573d6000803e3d6000fd5b505050506040513d601f19601f82011682018060405250810190610c6e9190611c05565b610c8a5760405162461bcd60e51b815260040161030d90611d12565b604080518381526064602082015233917ff3a670cd3af7d64b488926880889d08a8585a138ff455227af6737339a1ec262910160405180910390a25050565b610ceb604051806060016040528060268152602001611fdc6026913933611511565b610d2a6040518060400160405280601d81526020017f4465706f73697420616d6f756e743a202573206261736520756e6974730000008152508361155a565b68056bc75e2d63100000821015610d535760405162461bcd60e51b815260040161030d90611d49565b6001546040516323b872dd60e01b81526001600160a01b03909116906323b872dd90610d8790339030908790600401611bb4565b6020604051808303816000875af1158015610da6573d6000803e3d6000fd5b505050506040513d601f19601f82011682018060405250810190610dca9190611c05565b610de65760405162461bcd60e51b815260040161030d90611c27565b6000610dfb68056bc75e2d6310000084611da6565b90506000610e1268056bc75e2d6310000085611dba565b90508015610f0d57610e5360405180604001604052806017815260200176526566756e64696e672072656d61696e6465723a20257360481b8152508261155a565b60015460405163a9059cbb60e01b8152336004820152602481018390526001600160a01b039091169063a9059cbb906044016020604051808303816000875af1158015610ea4573d6000803e3d6000fd5b505050506040513d601f19601f82011682018060405250810190610ec89190611c05565b610f0d5760405162461bcd60e51b81526020600482015260166024820152751499599d5b99081d1c985b9cd9995c8819985a5b195960521b604482015260640161030d565b60005b82811015610fcf57600380549081906000610f2a83611cf9565b9190505550610f526040518060600160405280602e8152602001611f77602e9139823361159f565b6002546040516322b4ab3f60e21b81526001600160a01b0390911690638ad2acfc90610f8990339085906064908b90600401611e14565b600060405180830381600087803b158015610fa357600080fd5b505af1158015610fb7573d6000803e3d6000fd5b50505050508080610fc790611cf9565b915050610f10565b50604080518581526020810184905290810182905233907f91ede45f04a37a7c170f5c1207df3b6bc748dc1e04ad5e917a241d0f52feada39060600160405180910390a250505050565b61102161141b565b6001600160a01b0381166110865760405162461bcd60e51b815260206004820152602660248201527f4f776e61626c653a206e6577206f776e657220697320746865207a65726f206160448201526564647265737360d01b606482015260840161030d565b61108f81611475565b50565b6110b5604051806060016040528060378152602001611fa56037913933856115e6565b68056bc75e2d631000008210156110de5760405162461bcd60e51b815260040161030d90611d49565b6001546040516323b872dd60e01b81526001600160a01b03909116906323b872dd9061111290339030908790600401611bb4565b6020604051808303816000875af1158015611131573d6000803e3d6000fd5b505050506040513d601f19601f820116820180604052508101906111559190611c05565b6111715760405162461bcd60e51b815260040161030d90611c27565b600061118668056bc75e2d6310000084611da6565b9050600061119d68056bc75e2d6310000085611dba565b90508015611298576111de60405180604001604052806017815260200176526566756e64696e672072656d61696e6465723a20257360481b8152508261155a565b60015460405163a9059cbb60e01b8152336004820152602481018390526001600160a01b039091169063a9059cbb906044016020604051808303816000875af115801561122f573d6000803e3d6000fd5b505050506040513d601f19601f820116820180604052508101906112539190611c05565b6112985760405162461bcd60e51b81526020600482015260166024820152751499599d5b99081d1c985b9cd9995c8819985a5b195960521b604482015260640161030d565b816001146112f95760405162461bcd60e51b815260206004820152602860248201527f6465706f736974546f20616363657074732065786163746c79206120243130306044820152670819195c1bdcda5d60c21b606482015260840161030d565b60038054908190600061130b83611cf9565b90915550506002546040516322b4ab3f60e21b81526001600160a01b0390911690638ad2acfc9061134790899085906064908a90600401611e14565b600060405180830381600087803b15801561136157600080fd5b505af1158015611375573d6000803e3d6000fd5b505060408051888152600160208201529081018590526001600160a01b03891692507f91ede45f04a37a7c170f5c1207df3b6bc748dc1e04ad5e917a241d0f52feada391506060016105bf565b7f19457468657265756d205369676e6564204d6573736167653a0a3332000000006000908152601c91909152603c902090565b6000806000611404858561162d565b9150915061141181611672565b5090505b92915050565b6000546001600160a01b031633146105e15760405162461bcd60e51b815260206004820181905260248201527f4f776e61626c653a2063616c6c6572206973206e6f7420746865206f776e6572604482015260640161030d565b600080546001600160a01b038381166001600160a01b0319831681178455604051919092169283917f8be0079c531659141344cd1fd0a4f28419497f9722a3daafe3b4186f6b6457e09190a35050565b61150c8383836040516024016114dd93929190611e4b565b60408051601f198184030181529190526020810180516001600160e01b0316630d26b92560e01b1790526117bc565b505050565b6115568282604051602401611527929190611e79565b60408051601f198184030181529190526020810180516001600160e01b031663319af33360e01b1790526117bc565b5050565b6115568282604051602401611570929190611ea3565b60408051601f198184030181529190526020810180516001600160e01b0316632d839cb360e21b1790526117bc565b61150c8383836040516024016115b793929190611ec5565b60408051601f198184030181529190526020810180516001600160e01b031663038fd88960e31b1790526117bc565b61150c8383836040516024016115fe93929190611ef8565b60408051601f198184030181529190526020810180516001600160e01b03166307e763af60e51b1790526117bc565b60008082516041036116635760208301516040840151606085015160001a611657878285856117c5565b9450945050505061166b565b506000905060025b9250929050565b600081600481111561168657611686611f2b565b0361168e5750565b60018160048111156116a2576116a2611f2b565b036116ef5760405162461bcd60e51b815260206004820152601860248201527f45434453413a20696e76616c6964207369676e61747572650000000000000000604482015260640161030d565b600281600481111561170357611703611f2b565b036117505760405162461bcd60e51b815260206004820152601f60248201527f45434453413a20696e76616c6964207369676e6174757265206c656e67746800604482015260640161030d565b600381600481111561176457611764611f2b565b0361108f5760405162461bcd60e51b815260206004820152602260248201527f45434453413a20696e76616c6964207369676e6174757265202773272076616c604482015261756560f01b606482015260840161030d565b61108f81611889565b6000807f7fffffffffffffffffffffffffffffff5d576e7357a4501ddfe92f46681b20a08311156117fc5750600090506003611880565b6040805160008082526020820180845289905260ff881692820192909252606081018690526080810185905260019060a0016020604051602081039080840390855afa158015611850573d6000803e3d6000fd5b5050604051601f1901519150506001600160a01b03811661187957600060019250925050611880565b9150600090505b94509492505050565b60006a636f6e736f6c652e6c6f679050600080835160208501845afa505050565b6000806000604084860312156118bf57600080fd5b83359250602084013567ffffffffffffffff808211156118de57600080fd5b818601915086601f8301126118f257600080fd5b81358181111561190157600080fd5b87602082850101111561191357600080fd5b6020830194508093505050509250925092565b60008083601f84011261193857600080fd5b50813567ffffffffffffffff81111561195057600080fd5b6020830191508360208260051b850101111561166b57600080fd5b6000806000806040858703121561198157600080fd5b843567ffffffffffffffff8082111561199957600080fd5b6119a588838901611926565b909650945060208701359150808211156119be57600080fd5b506119cb87828801611926565b95989497509550505050565b6000602082840312156119e957600080fd5b5035919050565b634e487b7160e01b600052604160045260246000fd5b600082601f830112611a1757600080fd5b813567ffffffffffffffff80821115611a3257611a326119f0565b604051601f8301601f19908116603f01168101908282118183101715611a5a57611a5a6119f0565b81604052838152866020858801011115611a7357600080fd5b836020870160208301376000602085830101528094505050505092915050565b60008060408385031215611aa657600080fd5b82359150602083013567ffffffffffffffff811115611ac457600080fd5b611ad085828601611a06565b9150509250929050565b6001600160a01b038116811461108f57600080fd5b600060208284031215611b0157600080fd5b8135611b0c81611ada565b9392505050565b600080600060608486031215611b2857600080fd5b8335611b3381611ada565b925060208401359150604084013567ffffffffffffffff811115611b5657600080fd5b611b6286828701611a06565b9150509250925092565b600060208284031215611b7e57600080fd5b8151611b0c81611ada565b602080825260119082015270496e76616c6964207369676e617475726560781b604082015260600190565b6001600160a01b039384168152919092166020820152604081019190915260600190565b634e487b7160e01b600052601160045260246000fd5b808202811582820484141761141557611415611bd8565b600060208284031215611c1757600080fd5b81518015158114611b0c57600080fd5b6020808252600f908201526e151c985b9cd9995c8819985a5b1959608a1b604082015260600190565b634e487b7160e01b600052603260045260246000fd5b6000808335601e19843603018112611c7d57600080fd5b83018035915067ffffffffffffffff821115611c9857600080fd5b60200191503681900382131561166b57600080fd5b60018060a01b038616815284602082015283604082015260806060820152816080820152818360a0830137600081830160a090810191909152601f909201601f19160101949350505050565b600060018201611d0b57611d0b611bd8565b5060010190565b6020808252601a908201527f537461626c65636f696e207472616e73666572206661696c6564000000000000604082015260600190565b60208082526027908201527f4d696e696d756d206465706f736974206973202431303020776f727468206f6660408201526620746f6b656e7360c81b606082015260800190565b634e487b7160e01b600052601260045260246000fd5b600082611db557611db5611d90565b500490565b600082611dc957611dc9611d90565b500690565b6000815180845260005b81811015611df457602081850181015186830182015201611dd8565b506000602082860101526020601f19601f83011685010191505092915050565b60018060a01b0385168152836020820152826040820152608060608201526000611e416080830184611dce565b9695505050505050565b606081526000611e5e6060830186611dce565b6001600160a01b039490941660208301525060400152919050565b604081526000611e8c6040830185611dce565b905060018060a01b03831660208301529392505050565b604081526000611eb66040830185611dce565b90508260208301529392505050565b606081526000611ed86060830186611dce565b6020830194909452506001600160a01b0391909116604090910152919050565b606081526000611f0b6060830186611dce565b6001600160a01b0394851660208401529290931660409091015292915050565b634e487b7160e01b600052602160045260246000fdfe53696c7665726261636b735661756c742e72656465656d2063616c6c65642062793a20257320666f7220746f6b656e49643a2025734d696e74696e67204e4654207769746820746f6b656e49643a20257320666f72206465706f7369746f723a20257353696c7665726261636b735661756c742e6465706f736974546f2063616c6c65642062793a2025732c20726563697069656e743a20257353696c7665726261636b735661756c742e6465706f7369742063616c6c65642062793a202573a26469706673582212207eb251b7374ec412dc86e2463f475cdbd11313b96bf5b325fca5a81d5227912564736f6c63430008110033",
  "linkReferences": {},
  "deployedLinkReferences": {}
}