{
  "_format": "hh-sol-artifact-1",
  "contractName": "SilverbacksNFT",
  "sourceName": "contracts/SilverbacksNFT.sol",
  "abi": [
    {
      "inputs": [
        {
          "internalType": "string",
          "name": "name",
          "type": "string"
        },
        {
          "internalType": "string",
          "name": "symbol",
          "type": "string"
        }
      ],
      "stateMutability": "nonpayable",
      "type": "constructor"
    },
    {
      "anonymous": false,
      "inputs": [
        {
          "indexed": true,
          "internalType": "address",
          "name": "owner",
          "type": "address"
        },
        {
          "indexed": true,
          "internalType": "address",
          "name": "approved",
          "type": "address"
        },
        {
          "indexed": true,
          "internalType": "uint256",
          "name": "tokenId",
          "type": "uint256"
        }
      ],
      "name": "Approval",
      "type": "event"
    },
    {
      "anonymous": false,
      "inputs": [
        {
          "indexed": true,
          "internalType": "address",
          "name": "owner",
          "type": "address"
        },
        {
          "indexed": true,
          "internalType": "address",
          "name": "operator",
          "type": "address"
        },
        {
          "indexed": false,
          "internalType": "bool",
          "name": "approved",
          "type": "bool"
        }
      ],
      "name": "ApprovalForAll",
      "type": "event"
    },
    {
      "anonymous": false,
      "inputs": [
        {
          "indexed": true,
          "internalType": "uint256",
          "name": "tokenId",
          "type": "uint256"
        },
        {
          "indexed": true,
          "internalType": "address",
          "name": "burner",
          "type": "address"
        }
      ],
      "name": "BurnedSilverback",
      "type": "event"
    },
    {
      "anonymous": false,
      "inputs": [
        {
          "indexed": true,
          "internalType": "uint256",
          "name": "tokenId",
          "type": "uint256"
        },
        {
          "indexed": true,
          "internalType": "address",
          "name": "owner",
          "type": "address"
        },
        {
          "indexed": false,
          "internalType": "uint256",
          "name": "value",
          "type": "uint256"
        }
      ],
      "name": "MintedSilverback",
      "type": "event"
    },
    {
      "anonymous": false,
      "inputs": [
        {
          "indexed": true,
          "internalType": "address",
          "name": "previousOwner",
          "type": "address"
        },
        {
          "indexed": true,
          "internalType": "address",
          "name": "newOwner",
          "type": "address"
        }
      ],
      "name": "OwnershipTransferred",
      "type": "event"
    },
    {
      "anonymous": false,
      "inputs": [
        {
          "indexed": true,
          "internalType": "address",
          "name": "from",
          "type": "address"
        },
        {
          "indexed": true,
          "internalType": "address",
          "name": "to",
          "type": "address"
        },
        {
          "indexed": true,
          "internalType": "uint256",
          "name": "tokenId",
          "type": "uint256"
        }
      ],
      "name": "Transfer",
      "type": "event"
    },
    {
      "inputs": [
        {
          "internalType": "address",
          "name": "to",
          "type": "address"
        },
        {
          "internalType": "uint256",
          "name": "tokenId",
          "type": "uint256"
        }
      ],
      "name": "approve",
      "outputs": [],
      "stateMutability": "nonpayable",
      "type": "function"
    },
    {
      "inputs": [
        {
          "internalType": "address",
          "name": "owner",
          "type": "address"
        }
      ],
      "name": "balanceOf",
      "outputs": [
        {
          "internalType": "uint256",
          "name": "",
          "type": "uint256"
        }
      ],
      "stateMutability": "view",
      "type": "function"
    },
    {
      "inputs": [
        {
          "internalType": "uint256",
          "name": "tokenId",
          "type": "uint256"
        }
      ],
      "name": "burn",
      "outputs": [],
      "stateMutability": "nonpayable",
      "type": "function"
    },
    {
      "inputs": [
        {
          "internalType": "address",
          "name": "from",
          "type": "address"
        },
        {
          "internalType": "address",
          "name": "to",
          "type": "address"
        },
        {
          "internalType": "uint256",
          "name": "tokenId",
          "type": "uint256"
        }
      ],
      "name": "claimTransfer",
      "outputs": [],
      "stateMutability": "nonpayable",
      "type": "function"
    },
    {
      "inputs": [
        {
          "internalType": "uint256",
          "name": "",
          "type": "uint256"
        }
      ],
      "name": "faceValue",
      "outputs": [
        {
          "internalType": "uint256",
          "name": "",
          "type": "uint256"
        }
      ],
      "stateMutability": "view",
      "type": "function"
    },
    {
      "inputs": [
        {
          "internalType": "uint256",
          "name": "tokenId",
          "type": "uint256"
        }
      ],
      "name": "getApproved",
      "outputs": [
        {
          "internalType": "address",
          "name": "",
          "type": "address"
        }
      ],
      "stateMutability": "view",
      "type": "function"
    },
    {
      "inputs": [
        {
          "internalType": "address",
          "name": "owner",
          "type": "address"
        },
        {
          "internalType": "address",
          "name": "operator",
          "type": "address"
        }
      ],
      "name": "isApprovedForAll",
      "outputs": [
        {
          "internalType": "bool",
          "name": "",
          "type": "bool"
        }
      ],
      "stateMutability": "view",
      "type": "function"
    },
    {
      "inputs": [
        {
          "internalType": "address",
          "name": "to",
          "type": "address"
        },
        {
          "internalType": "uint256",
          "name": "tokenId",
          "type": "uint256"
        },
        {
          "internalType": "uint256",
          "name": "value",
          "type": "uint256"
        },
        {
          "internalType": "string",
          "name": "metadataURI",
          "type": "string"
        }
      ],
      "name": "mintNote",
      "outputs": [],
      "stateMutability": "nonpayable",
      "type": "function"
    },
    {
      "inputs": [],
      "name": "name",
      "outputs": [
        {
          "internalType": "string",
          "name": "",
          "type": "string"
        }
      ],
      "stateMutability": "view",
      "type": "function"
    },
    {
      "inputs": [],
      "name": "owner",
      "outputs": [
        {
          "internalType": "address",
          "name": "",
          "type": "address"
        }
      ],
      "stateMutability": "view",
      "type": "function"
    },
    {
      "inputs": [
        {
          "internalType": "uint256",
          "name": "tokenId",
          "type": "uint256"
        }
      ],
      "name": "ownerOf",
      "outputs": [
        {
          "internalType": "address",
          "name": "",
          "type": "address"
        }
      ],
      "stateMutability": "view",
      "type": "function"
    },
    {
      "inputs": [],
      "name": "renounceOwnership",
      "outputs": [],
      "stateMutability": "nonpayable",
      "type": "function"
    },
    {
      "inputs": [
        {
          "internalType": "address",
          "name": "from",
          "type": "address"
        },
        {
          "internalType": "address",
          "name": "to",
          "type": "address"
        },
        {
          "internalType": "uint256",
          "name": "tokenId",
          "type": "uint256"
        }
      ],
      "name": "safeTransferFrom",
      "outputs": [],
      "stateMutability": "nonpayable",
      "type": "function"
    },
    {
      "inputs": [
        {
          "internalType": "address",
          "name": "from",
          "type": "address"
        },
        {
          "internalType": "address",
          "name": "to",
          "type": "address"
        },
        {
          "internalType": "uint256",
          "name": "tokenId",
          "type": "uint256"
        },
        {
          "internalType": "bytes",
          "name": "data",
          "type": "bytes"
        }
      ],
      "name": "safeTransferFrom",
      "outputs": [],
      "stateMutability": "nonpayable",
      "type": "function"
    },
    {
      "inputs": [
        {
          "internalType": "address",
          "name": "operator",
          "type": "address"
        },
        {
          "internalType": "bool",
          "name": "approved",
          "type": "bool"
        }
      ],
      "name": "setApprovalForAll",
      "outputs": [],
      "stateMutability": "nonpayable",
      "type": "function"
    },
    {
      "inputs": [
        {
          "internalType": "string",
          "name": "baseURI",
          "type": "string"
        }
      ],
      "name": "setBaseURI",
      "outputs": [],
      "stateMutability": "nonpayable",
      "type": "function"
    },
    {
      "inputs": [
        {
          "internalType": "address",
          "name": "_vaultContract",
          "type": "address"
        }
      ],
      "name": "setVaultContract",
      "outputs": [],
      "stateMutability": "nonpayable",
      "type": "function"
    },
    {
      "inputs": [
        {
          "internalType": "bytes4",
          "name": "interfaceId",
          "type": "bytes4"
        }
      ],
      "name": "supportsInterface",
      "outputs": [
        {
          "internalType": "bool",
          "name": "",
          "type": "bool"
        }
      ],
      "stateMutability": "view",
      "type": "function"
    },
    {
      "inputs": [],
      "name": "symbol",
      "outputs": [
        {
          "internalType": "string",
          "name": "",
          "type": "string"
        }
      ],
      "stateMutability": "view",
      "type": "function"
    },
    {
      "inputs": [
        {
          "internalType": "uint256",
          "name": "index",
          "type": "uint256"
        }
      ],
      "name": "tokenByIndex",
      "outputs": [
        {
          "internalType": "uint256",
          "name": "",
          "type": "uint256"
        }
      ],
      "stateMutability": "view",
      "type": "function"
    },
    {
      "inputs": [
        {
          "internalType": "address",
          "name": "owner",
          "type": "address"
        },
        {
          "internalType": "uint256",
          "name": "index",
          "type": "uint256"
        }
      ],
      "name": "tokenOfOwnerByIndex",
      "outputs": [
        {
          "internalType": "uint256",
          "name": "",
          "type": "uint256"
        }
      ],
      "stateMutability": "view",
      "type": "function"
    },
    {
      "inputs": [
        {
          "internalType": "uint256",
          "name": "tokenId",
          "type": "uint256"
        }
      ],
      "name": "tokenURI",
      "outputs": [
        {
          "internalType": "string",
          "name": "",
          "type": "string"
        }
      ],
      "stateMutability": "view",
      "type": "function"
    },
    {
      "inputs": [],
      "name": "totalSupply",
      "outputs": [
        {
          "internalType": "uint256",
          "name": "",
          "type": "uint256"
        }
      ],
      "stateMutability": "view",
      "type": "function"
    },
    {
      "inputs": [
        {
          "internalType": "address",
          "name": "from",
          "type": "address"
        },
        {
          "internalType": "address",
          "name": "to",
          "type": "address"
        },
        {
          "internalType": "uint256",
          "name": "tokenId",
          "type": "uint256"
        }
      ],
      "name": "transferFrom",
      "outputs": [],
      "stateMutability": "nonpayable",
      "type": "function"
    },
    {
      "inputs": [
        {
          "internalType": "address",
          "name": "newOwner",
          "type": "address"
        }
      ],
      "name": "transferOwnership",
      "outputs": [],
      "stateMutability": "nonpayable",
      "type": "function"
    },
    {
      "inputs": [],
      "name": "vaultContract",
      "outputs": [
        {
          "internalType": "address",
          "name": "",
          "type": "address"
        }
      ],
      "stateMutability": "view",
      "type": "function"
    }
  ],
  "bytecode": "0x60806040523480156200001157600080fd5b506040516200285438038062002854833981016040819052620000349162000193565b818160006200004483826200028c565b5060016200005382826200028c565b505050620000706200006a6200007860201b60201c565b6200007c565b505062000358565b3390565b600a80546001600160a01b038381166001600160a01b0319831681179093556040519116919082907f8be0079c531659141344cd1fd0a4f28419497f9722a3daafe3b4186f6b6457e090600090a35050565b634e487b7160e01b600052604160045260246000fd5b600082601f830112620000f657600080fd5b81516001600160401b0380821115620001135762000113620000ce565b604051601f8301601f19908116603f011681019082821181831017156200013e576200013e620000ce565b816040528381526020925086838588010111156200015b57600080fd5b600091505b838210156200017f578582018301518183018401529082019062000160565b600093810190920192909252949350505050565b60008060408385031215620001a757600080fd5b82516001600160401b0380821115620001bf57600080fd5b620001cd86838701620000e4565b93506020850151915080821115620001e457600080fd5b50620001f385828601620000e4565b9150509250929050565b600181811c908216806200021257607f821691505b6020821081036200023357634e487b7160e01b600052602260045260246000fd5b50919050565b601f8211156200028757600081815260208120601f850160051c81016020861015620002625750805b601f850160051c820191505b8181101562000283578281556001016200026e565b5050505b505050565b81516001600160401b03811115620002a857620002a8620000ce565b620002c081620002b98454620001fd565b8462000239565b602080601f831160018114620002f85760008415620002df5750858301515b600019600386901b1c1916600185901b17855562000283565b600085815260208120601f198616915b82811015620003295788860151825594840194600190910190840162000308565b5085821015620003485787850151600019600388901b60f8161c191681555b5050505050600190811b01905550565b6124ec80620003686000396000f3fe608060405234801561001057600080fd5b506004361061018e5760003560e01c80636352211e116100de57806396f4ada611610097578063c87b56dd11610071578063c87b56dd1461034d578063e985e9c514610360578063f2fde38b1461039c578063fe8dbd8e146103af57600080fd5b806396f4ada614610314578063a22cb46514610327578063b88d4fde1461033a57600080fd5b80636352211e146102ba57806370a08231146102cd578063715018a6146102e05780638ad2acfc146102e85780638da5cb5b146102fb57806395d89b411461030c57600080fd5b806323b872dd1161014b57806342966c681161012557806342966c681461026e57806347f4abdb146102815780634f6ccce71461029457806355f804b3146102a757600080fd5b806323b872dd146102355780632f745c591461024857806342842e0e1461025b57600080fd5b806301ffc9a71461019357806306fdde03146101bb578063081812fc146101d0578063095ea7b3146101fb57806318160ddd146102105780632274346b14610222575b600080fd5b6101a66101a1366004611c4d565b6103cf565b60405190151581526020015b60405180910390f35b6101c36103e0565b6040516101b29190611cc1565b6101e36101de366004611cd4565b610472565b6040516001600160a01b0390911681526020016101b2565b61020e610209366004611d09565b610499565b005b6008545b6040519081526020016101b2565b600e546101e3906001600160a01b031681565b61020e610243366004611d33565b6105b3565b610214610256366004611d09565b6105e4565b61020e610269366004611d33565b61067a565b61020e61027c366004611cd4565b610695565b61020e61028f366004611d33565b6107b8565b6102146102a2366004611cd4565b61082d565b61020e6102b5366004611e1b565b6108c0565b6101e36102c8366004611cd4565b6108d8565b6102146102db366004611e50565b610938565b61020e6109be565b61020e6102f6366004611e6b565b6109d2565b600a546001600160a01b03166101e3565b6101c3610b1d565b61020e610322366004611e50565b610b2c565b61020e610335366004611ecc565b610b56565b61020e610348366004611f08565b610b61565b6101c361035b366004611cd4565b610b99565b6101a661036e366004611f78565b6001600160a01b03918216600090815260056020908152604080832093909416825291909152205460ff1690565b61020e6103aa366004611e50565b610da1565b6102146103bd366004611cd4565b600b6020526000908152604090205481565b60006103da82610e1a565b92915050565b6060600080546103ef90611fab565b80601f016020809104026020016040519081016040528092919081815260200182805461041b90611fab565b80156104685780601f1061043d57610100808354040283529160200191610468565b820191906000526020600020905b81548152906001019060200180831161044b57829003601f168201915b5050505050905090565b600061047d82610e3f565b506000908152600460205260409020546001600160a01b031690565b60006104a4826108d8565b9050806001600160a01b0316836001600160a01b0316036105165760405162461bcd60e51b815260206004820152602160248201527f4552433732313a20617070726f76616c20746f2063757272656e74206f776e656044820152603960f91b60648201526084015b60405180910390fd5b336001600160a01b03821614806105325750610532813361036e565b6105a45760405162461bcd60e51b815260206004820152603d60248201527f4552433732313a20617070726f76652063616c6c6572206973206e6f7420746f60448201527f6b656e206f776e6572206f7220617070726f76656420666f7220616c6c000000606482015260840161050d565b6105ae8383610e9e565b505050565b6105bd3382610f0c565b6105d95760405162461bcd60e51b815260040161050d90611fe5565b6105ae838383610f8a565b60006105ef83610938565b82106106515760405162461bcd60e51b815260206004820152602b60248201527f455243373231456e756d657261626c653a206f776e657220696e646578206f7560448201526a74206f6620626f756e647360a81b606482015260840161050d565b506001600160a01b03919091166000908152600660209081526040808320938352929052205490565b6105ae83838360405180602001604052806000815250610b61565b6106b86040518060600160405280602e8152602001612489602e913933836110fb565b6106c23382610f0c565b806106d75750600e546001600160a01b031633145b61071c5760405162461bcd60e51b81526020600482015260166024820152752737ba1030baba3437b934bd32b2103a3790313ab93760511b604482015260640161050d565b61072581611142565b6000818152600b60209081526040808320839055600c909152812061074991611be9565b6107886040518060400160405280601881526020017f4e4654206275726e65643a20746f6b656e4964203d2025730000000000000000815250826111e5565b604051339082907f33add8699c7a0f22f198344aa2f8113d8ebae04fdb240d243f54795f3d3d472390600090a350565b600e546001600160a01b031633146108125760405162461bcd60e51b815260206004820152601a60248201527f4e6f7420617574686f72697a65643a204f6e6c79207661756c74000000000000604482015260640161050d565b6105ae8383836040518060200160405280600081525061122a565b600061083860085490565b821061089b5760405162461bcd60e51b815260206004820152602c60248201527f455243373231456e756d657261626c653a20676c6f62616c20696e646578206f60448201526b7574206f6620626f756e647360a01b606482015260840161050d565b600882815481106108ae576108ae612032565b90600052602060002001549050919050565b6108c861125d565b600d6108d48282612096565b5050565b6000818152600260205260408120546001600160a01b0316806103da5760405162461bcd60e51b8152602060048201526018602482015277115490cdcc8c4e881a5b9d985b1a59081d1bdad95b88125160421b604482015260640161050d565b60006001600160a01b0382166109a25760405162461bcd60e51b815260206004820152602960248201527f4552433732313a2061646472657373207a65726f206973206e6f7420612076616044820152683634b21037bbb732b960b91b606482015260840161050d565b506001600160a01b031660009081526003602052604090205490565b6109c661125d565b6109d060006112b7565b565b6109f460405180606001604052806025815260200161240e6025913933611309565b610a186040518060600160405280602d815260200161245c602d913985858561134e565b600a546001600160a01b0316331480610a3b5750600e546001600160a01b031633145b610a805760405162461bcd60e51b8152602060048201526016602482015275139bdd08185d5d1a1bdc9a5e9959081d1bc81b5a5b9d60521b604482015260640161050d565b610a8a8484611397565b6000838152600b60209081526040808320859055600c9091529020610aaf8282612096565b50610ad36040518060600160405280602981526020016124336029913984846113b1565b836001600160a01b0316837f47a59fb4515a2e0672df07cfecf546ef354d9a6d97efac10ae8e09aabbf25cb884604051610b0f91815260200190565b60405180910390a350505050565b6060600180546103ef90611fab565b610b3461125d565b600e80546001600160a01b0319166001600160a01b0392909216919091179055565b6108d43383836113f8565b610b6b3383610f0c565b610b875760405162461bcd60e51b815260040161050d90611fe5565b610b938484848461122a565b50505050565b6000818152600260205260409020546060906001600160a01b0316610c185760405162461bcd60e51b815260206004820152602f60248201527f4552433732314d657461646174613a2055524920717565727920666f72206e6f60448201526e3732bc34b9ba32b73a103a37b5b2b760891b606482015260840161050d565b6000828152600c602052604081208054610c3190611fab565b80601f0160208091040260200160405190810160405280929190818152602001828054610c5d90611fab565b8015610caa5780601f10610c7f57610100808354040283529160200191610caa565b820191906000526020600020905b815481529060010190602001808311610c8d57829003601f168201915b50505050509050600081511115610cc15792915050565b6000600d8054610cd090611fab565b80601f0160208091040260200160405190810160405280929190818152602001828054610cfc90611fab565b8015610d495780601f10610d1e57610100808354040283529160200191610d49565b820191906000526020600020905b815481529060010190602001808311610d2c57829003601f168201915b505050505090506000815111610d6e5760405180602001604052806000815250610d99565b80610d78856114c6565b604051602001610d89929190612156565b6040516020818303038152906040525b949350505050565b610da961125d565b6001600160a01b038116610e0e5760405162461bcd60e51b815260206004820152602660248201527f4f776e61626c653a206e6577206f776e657220697320746865207a65726f206160448201526564647265737360d01b606482015260840161050d565b610e17816112b7565b50565b60006001600160e01b0319821663780e9d6360e01b14806103da57506103da826115d2565b6000818152600260205260409020546001600160a01b0316610e175760405162461bcd60e51b8152602060048201526018602482015277115490cdcc8c4e881a5b9d985b1a59081d1bdad95b88125160421b604482015260640161050d565b600081815260046020526040902080546001600160a01b0319166001600160a01b0384169081179091558190610ed3826108d8565b6001600160a01b03167f8c5be1e5ebec7d5bd14f71427d1e84f3dd0314c0f7b2291e5b200ac8c7c3b92560405160405180910390a45050565b600080610f18836108d8565b9050806001600160a01b0316846001600160a01b03161480610f5f57506001600160a01b0380821660009081526005602090815260408083209388168352929052205460ff165b80610d995750836001600160a01b0316610f7884610472565b6001600160a01b031614949350505050565b826001600160a01b0316610f9d826108d8565b6001600160a01b031614610fc35760405162461bcd60e51b815260040161050d90612185565b6001600160a01b0382166110255760405162461bcd60e51b8152602060048201526024808201527f4552433732313a207472616e7366657220746f20746865207a65726f206164646044820152637265737360e01b606482015260840161050d565b6110328383836001611622565b826001600160a01b0316611045826108d8565b6001600160a01b03161461106b5760405162461bcd60e51b815260040161050d90612185565b600081815260046020908152604080832080546001600160a01b03199081169091556001600160a01b0387811680865260038552838620805460001901905590871680865283862080546001019055868652600290945282852080549092168417909155905184937fddf252ad1be2c89b69c2b068fc378daa952ba7f163c4a11628f55a4df523b3ef91a4505050565b6105ae838383604051602401611113939291906121ca565b60408051601f198184030181529190526020810180516001600160e01b0316630d26b92560e01b17905261162e565b600061114d826108d8565b905061115d816000846001611622565b611166826108d8565b600083815260046020908152604080832080546001600160a01b03199081169091556001600160a01b0385168085526003845282852080546000190190558785526002909352818420805490911690555192935084927fddf252ad1be2c89b69c2b068fc378daa952ba7f163c4a11628f55a4df523b3ef908390a45050565b6108d482826040516024016111fb9291906121f8565b60408051601f198184030181529190526020810180516001600160e01b0316632d839cb360e21b17905261162e565b611235848484610f8a565b61124184848484611637565b610b935760405162461bcd60e51b815260040161050d9061221a565b600a546001600160a01b031633146109d05760405162461bcd60e51b815260206004820181905260248201527f4f776e61626c653a2063616c6c6572206973206e6f7420746865206f776e6572604482015260640161050d565b600a80546001600160a01b038381166001600160a01b0319831681179093556040519116919082907f8be0079c531659141344cd1fd0a4f28419497f9722a3daafe3b4186f6b6457e090600090a35050565b6108d4828260405160240161131f92919061226c565b60408051601f198184030181529190526020810180516001600160e01b031663319af33360e01b17905261162e565b610b93848484846040516024016113689493929190612296565b60408051601f198184030181529190526020810180516001600160e01b0316637c7a8d8f60e11b17905261162e565b6108d4828260405180602001604052806000815250611738565b6105ae8383836040516024016113c9939291906122ce565b60408051601f198184030181529190526020810180516001600160e01b031663ca47c4eb60e01b17905261162e565b816001600160a01b0316836001600160a01b0316036114595760405162461bcd60e51b815260206004820152601960248201527f4552433732313a20617070726f766520746f2063616c6c657200000000000000604482015260640161050d565b6001600160a01b03838116600081815260056020908152604080832094871680845294825291829020805460ff191686151590811790915591519182527f17307eab39ab6107e8899845ad3d59bd9653f200f220920489ca2b5937696c31910160405180910390a3505050565b6060816000036114ed5750506040805180820190915260018152600360fc1b602082015290565b8160005b8115611517578061150181612309565b91506115109050600a83612338565b91506114f1565b60008167ffffffffffffffff81111561153257611532611d6f565b6040519080825280601f01601f19166020018201604052801561155c576020820181803683370190505b508593509050815b83156115c957611575600a8561234c565b611580906030612360565b60f81b8261158d83612373565b925082815181106115a0576115a0612032565b60200101906001600160f81b031916908160001a9053506115c2600a85612338565b9350611564565b50949350505050565b60006001600160e01b031982166380ac58cd60e01b148061160357506001600160e01b03198216635b5e139f60e01b145b806103da57506301ffc9a760e01b6001600160e01b03198316146103da565b610b938484848461176b565b610e178161189f565b60006001600160a01b0384163b1561172d57604051630a85bd0160e11b81526001600160a01b0385169063150b7a029061167b90339089908890889060040161238a565b6020604051808303816000875af19250505080156116b6575060408051601f3d908101601f191682019092526116b3918101906123c7565b60015b611713573d8080156116e4576040519150601f19603f3d011682016040523d82523d6000602084013e6116e9565b606091505b50805160000361170b5760405162461bcd60e51b815260040161050d9061221a565b805181602001fd5b6001600160e01b031916630a85bd0160e11b149050610d99565b506001949350505050565b61174283836118c0565b61174f6000848484611637565b6105ae5760405162461bcd60e51b815260040161050d9061221a565b60018111156117da5760405162461bcd60e51b815260206004820152603560248201527f455243373231456e756d657261626c653a20636f6e7365637574697665207472604482015274185b9cd9995c9cc81b9bdd081cdd5c1c1bdc9d1959605a1b606482015260840161050d565b816001600160a01b0385166118365761183181600880546000838152600960205260408120829055600182018355919091527ff3f7a9fe364faab93b216da50a3214154f22a0a2b415b23a84c8169e8b636ee30155565b611859565b836001600160a01b0316856001600160a01b031614611859576118598582611a59565b6001600160a01b0384166118755761187081611af6565b611898565b846001600160a01b0316846001600160a01b031614611898576118988482611ba5565b5050505050565b60006a636f6e736f6c652e6c6f679050600080835160208501845afa505050565b6001600160a01b0382166119165760405162461bcd60e51b815260206004820181905260248201527f4552433732313a206d696e7420746f20746865207a65726f2061646472657373604482015260640161050d565b6000818152600260205260409020546001600160a01b03161561197b5760405162461bcd60e51b815260206004820152601c60248201527f4552433732313a20746f6b656e20616c7265616479206d696e74656400000000604482015260640161050d565b611989600083836001611622565b6000818152600260205260409020546001600160a01b0316156119ee5760405162461bcd60e51b815260206004820152601c60248201527f4552433732313a20746f6b656e20616c7265616479206d696e74656400000000604482015260640161050d565b6001600160a01b038216600081815260036020908152604080832080546001019055848352600290915280822080546001600160a01b0319168417905551839291907fddf252ad1be2c89b69c2b068fc378daa952ba7f163c4a11628f55a4df523b3ef908290a45050565b60006001611a6684610938565b611a7091906123e4565b600083815260076020526040902054909150808214611ac3576001600160a01b03841660009081526006602090815260408083208584528252808320548484528184208190558352600790915290208190555b5060009182526007602090815260408084208490556001600160a01b039094168352600681528383209183525290812055565b600854600090611b08906001906123e4565b60008381526009602052604081205460088054939450909284908110611b3057611b30612032565b906000526020600020015490508060088381548110611b5157611b51612032565b6000918252602080832090910192909255828152600990915260408082208490558582528120556008805480611b8957611b896123f7565b6001900381819060005260206000200160009055905550505050565b6000611bb083610938565b6001600160a01b039093166000908152600660209081526040808320868452825280832085905593825260079052919091209190915550565b508054611bf590611fab565b6000825580601f10611c05575050565b601f016020900490600052602060002090810190610e1791905b80821115611c335760008155600101611c1f565b5090565b6001600160e01b031981168114610e1757600080fd5b600060208284031215611c5f57600080fd5b8135611c6a81611c37565b9392505050565b60005b83811015611c8c578181015183820152602001611c74565b50506000910152565b60008151808452611cad816020860160208601611c71565b601f01601f19169290920160200192915050565b602081526000611c6a6020830184611c95565b600060208284031215611ce657600080fd5b5035919050565b80356001600160a01b0381168114611d0457600080fd5b919050565b60008060408385031215611d1c57600080fd5b611d2583611ced565b946020939093013593505050565b600080600060608486031215611d4857600080fd5b611d5184611ced565b9250611d5f60208501611ced565b9150604084013590509250925092565b634e487b7160e01b600052604160045260246000fd5b600067ffffffffffffffff80841115611da057611da0611d6f565b604051601f8501601f19908116603f01168101908282118183101715611dc857611dc8611d6f565b81604052809350858152868686011115611de157600080fd5b858560208301376000602087830101525050509392505050565b600082601f830112611e0c57600080fd5b611c6a83833560208501611d85565b600060208284031215611e2d57600080fd5b813567ffffffffffffffff811115611e4457600080fd5b610d9984828501611dfb565b600060208284031215611e6257600080fd5b611c6a82611ced565b60008060008060808587031215611e8157600080fd5b611e8a85611ced565b93506020850135925060408501359150606085013567ffffffffffffffff811115611eb457600080fd5b611ec087828801611dfb565b91505092959194509250565b60008060408385031215611edf57600080fd5b611ee883611ced565b915060208301358015158114611efd57600080fd5b809150509250929050565b60008060008060808587031215611f1e57600080fd5b611f2785611ced565b9350611f3560208601611ced565b925060408501359150606085013567ffffffffffffffff811115611f5857600080fd5b8501601f81018713611f6957600080fd5b611ec087823560208401611d85565b60008060408385031215611f8b57600080fd5b611f9483611ced565b9150611fa260208401611ced565b90509250929050565b600181811c90821680611fbf57607f821691505b602082108103611fdf57634e487b7160e01b600052602260045260246000fd5b50919050565b6020808252602d908201527f4552433732313a2063616c6c6572206973206e6f7420746f6b656e206f776e6560408201526c1c881bdc88185c1c1c9bdd9959609a1b606082015260800190565b634e487b7160e01b600052603260045260246000fd5b601f8211156105ae57600081815260208120601f850160051c8101602086101561206f5750805b601f850160051c820191505b8181101561208e5782815560010161207b565b505050505050565b815167ffffffffffffffff8111156120b0576120b0611d6f565b6120c4816120be8454611fab565b84612048565b602080601f8311600181146120f957600084156120e15750858301515b600019600386901b1c1916600185901b17855561208e565b600085815260208120601f198616915b8281101561212857888601518255948401946001909101908401612109565b50858210156121465787850151600019600388901b60f8161c191681555b5050505050600190811b01905550565b60008351612168818460208801611c71565b83519083019061217c818360208801611c71565b01949350505050565b60208082526025908201527f4552433732313a207472616e736665722066726f6d20696e636f72726563742060408201526437bbb732b960d91b606082015260800190565b6060815260006121dd6060830186611c95565b6001600160a01b039490941660208301525060400152919050565b60408152600061220b6040830185611c95565b90508260208301529392505050565b60208082526032908201527f4552433732313a207472616e7366657220746f206e6f6e20455243373231526560408201527131b2b4bb32b91034b6b83632b6b2b73a32b960711b606082015260800190565b60408152600061227f6040830185611c95565b905060018060a01b03831660208301529392505050565b6080815260006122a96080830187611c95565b6001600160a01b03959095166020830152506040810192909252606090910152919050565b6060815260006122e16060830186611c95565b60208301949094525060400152919050565b634e487b7160e01b600052601160045260246000fd5b60006001820161231b5761231b6122f3565b5060010190565b634e487b7160e01b600052601260045260246000fd5b60008261234757612347612322565b500490565b60008261235b5761235b612322565b500690565b808201808211156103da576103da6122f3565b600081612382576123826122f3565b506000190190565b6001600160a01b03858116825284166020820152604081018390526080606082018190526000906123bd90830184611c95565b9695505050505050565b6000602082840312156123d957600080fd5b8151611c6a81611c37565b818103818111156103da576103da6122f3565b634e487b7160e01b600052603160045260246000fdfe53696c7665726261636b734e46542e6d696e744e6f74652063616c6c65642062793a2025734e4654206d696e7465643a20746f6b656e4964203d2025732c20666163652076616c7565203d202573506172616d65746572733a20746f203d2025732c20746f6b656e4964203d2025732c2076616c7565203d20257353696c7665726261636b734e46542e6275726e2063616c6c65642062793a2025732c20746f6b656e49643a202573a2646970667358221220b99436d1db01cd33315f413334d15d2ab2921968719f0c95a32b10ea4fc6cd7864736f6c63430008110033",
  "linkReferences": {},
  "deployedLinkReferences": {}
}